:020000040800F2
:100000000010002081340008D1340008D1340008E9
:1000100000000000000000000000000000000000E0
:10002000000000000000000000000000D1340008C3
:100030000000000000000000D1340008B10C0008EE
:10004000D134000800000000D1340008D134000889
:10005000D1340008D50F0008091000083D10000831
:10006000000000001D0F0008390F0008650F000890
:10007000D1340008690F0008890F00080000000053
:10008000910F00080000000000000000B10F000800
:1000900000000000B30F0008B50F0008D1340008BD
:1000A00000000000D134000800000000B90F000873
:1000B0000000000000000000000000000000000040
:1000C00010B5064C2378002B07D1054B002B02D02E
:1000D000044800E000BF0123237010BD640000202D
:1000E00000000000483E0008044B10B5002B03D070
:1000F0000349044800E000BF10BDC04600000000F6
:1001000068000020483E00080023C25C0133002A3A
:10011000FBD1581E7047000002B4714649084900DF
:10012000095C49008E4402BC7047C0460022430867
:100130008B4274D303098B425FD3030A8B4244D3AF
:10014000030B8B4228D3030C8B420DD3FF220902F1
:1001500012BA030C8B4202D31212090265D0030BB0
:100160008B4219D300E0090AC30B8B4201D3CB03A6
:10017000C01A5241830B8B4201D38B03C01A5241E8
:10018000430B8B4201D34B03C01A5241030B8B42EA
:1001900001D30B03C01A5241C30A8B4201D3CB02D5
:1001A000C01A5241830A8B4201D38B02C01A5241BA
:1001B000430A8B4201D34B02C01A5241030A8B42BD
:1001C00001D30B02C01A5241CDD2C3098B4201D3D5
:1001D000CB01C01A524183098B4201D38B01C01A53
:1001E000524143098B4201D34B01C01A52410309CA
:1001F0008B4201D30B01C01A5241C3088B4201D379
:10020000CB00C01A524183088B4201D38B00C01A25
:10021000524143088B4201D34B00C01A5241411A4C
:1002200000D20146524110467047FFE701B5002059
:1002300000F0F0F802BDC0460029F7D076E770471D
:1002400003460B437FD4002243088B4274D3030937
:100250008B425FD3030A8B4244D3030B8B4228D3D8
:10026000030C8B420DD3FF22090212BA030C8B42FE
:1002700002D31212090265D0030B8B4219D300E09E
:10028000090AC30B8B4201D3CB03C01A5241830B23
:100290008B4201D38B03C01A5241430B8B4201D3D3
:1002A0004B03C01A5241030B8B4201D30B03C01AFC
:1002B0005241C30A8B4201D3CB02C01A5241830A76
:1002C0008B4201D38B02C01A5241430A8B4201D3A5
:1002D0004B02C01A5241030A8B4201D30B02C01ACF
:1002E0005241CDD2C3098B4201D3CB01C01A524136
:1002F00083098B4201D38B01C01A524143098B42BF
:1003000001D34B01C01A524103098B4201D30B01A7
:10031000C01A5241C3088B4201D3CB00C01A5241CC
:1003200083088B4201D38B00C01A524143088B4291
:1003300001D34B00C01A5241411A00D2014652412A
:10034000104670475DE0CA0F00D04942031000D349
:100350004042534000229C4603098B422DD3030A9E
:100360008B4212D3FC22890112BA030A8B420CD3AE
:10037000890192118B4208D3890192118B4204D3D7
:1003800089013AD0921100E08909C3098B4201D357
:10039000CB01C01A524183098B4201D38B01C01A91
:1003A000524143098B4201D34B01C01A5241030908
:1003B0008B4201D30B01C01A5241C3088B4201D3B7
:1003C000CB00C01A524183088B4201D38B00C01A64
:1003D0005241D9D243088B4201D34B00C01A52413B
:1003E000411A00D20146634652415B10104601D3C8
:1003F0004042002B00D54942704763465B1000D352
:10040000404201B5002000F005F802BD0029F8D0F7
:1004100016E770477047C046436901334361704730
:10042000704770477047012A03D0022A03D000208A
:1004300070470160FBE70B680360F8E7012A03D00F
:10044000022A03D0002070470160FBE70B680360BD
:10045000F8E7012A03D0022A03D000207047016088
:10046000FBE70B680360F8E7012A03D0022A03D0F8
:10047000002070470160FBE70B680360F8E7012A82
:1004800003D0022A03D0002070470160FBE70B680D
:100490000360F8E77047012A03D0022A03D0002046
:1004A00070470160FBE70B680360F8E77047012ABB
:1004B00003D0022A03D0002070470160FBE70B68DD
:1004C0000360F8E7012A03D0022A03D00020704716
:1004D0000160FBE70B680360F8E7883070B50D003A
:1004E0000400006803689B68984725602B68280013
:1004F0001B68984770BD012A03D0022A03D0002050
:1005000070470160FBE70B680360F8E7012A03D03E
:10051000022A03D0002070470160FBE70B680360EC
:10052000F8E7012A03D0022A03D0002070470160B7
:10053000FBE70B680360F8E7012A03D0022A03D027
:10054000002070470160FBE70B680360F8E7012AB1
:1005500003D0022A03D0002070470160FBE70B683C
:100560000360F8E7012A03D0022A03D00020704775
:100570000160FBE70B680360F8E7012A03D0022A59
:1005800003D0002070470160FBE70B680360F8E7C9
:10059000012A03D0022A03D0002070470160FBE744
:1005A0000B680360F8E7012A03D0022A03D0002079
:1005B00070470160FBE70B680360F8E7012A03D08E
:1005C000022A03D0002070470160FBE70B6803603C
:1005D000F8E7012A03D0022A03D000207047016007
:1005E000FBE70B680360F8E7012A03D0022A03D077
:1005F000002070470160FBE70B680360F8E7012A01
:1006000003D0022A03D0002070470160FBE70B688B
:100610000360F8E7012A03D0022A03D000207047C4
:100620000160FBE70B680360F8E7012A03D0022AA8
:1006300003D0002070470160FBE70B680360F8E718
:10064000012A03D0022A03D0002070470160FBE793
:100650000B680360F8E7012A03D0022A03D00020C8
:1006600070470160FBE70B680360F8E7012A03D0DD
:10067000022A03D0002070470160FBE70B6803608B
:10068000F8E7012A03D0022A03D000207047016056
:10069000FBE70B680360F8E77047012A03D0022AE2
:1006A00003D0002070470160FBE70B680360F8E7A8
:1006B000012A03D0022A03D0002070470160FBE723
:1006C0000B680360F8E770477047012A03D0022ADD
:1006D00003D0002070470160FBE70B680360F8E778
:1006E000012A03D0022A03D0002070470160FBE7F3
:1006F0000B680360F8E7012A03D0022A03D0002028
:1007000070470160FBE70B680360F8E7012A03D03C
:10071000022A03D0002070470160FBE70B680360EA
:10072000F8E7012A03D0022A03D0002070470160B5
:10073000FBE70B680360F8E7012A03D0022A03D025
:10074000002070470160FBE70B680360F8E7012AAF
:1007500003D0022A03D0002070470160FBE70B683A
:100760000360F8E7012A03D0022A03D00020704773
:100770000160FBE70B680360F8E7006810B5010053
:100780009D31FF31FFF7A9FE10BD006810B50100D3
:10079000F031FFF7A2FE10BD932310B500689B0057
:1007A000C118FFF79AFE10BD962310B50068DB0054
:1007B000C118FFF792FE10BDCB2310B500689B0057
:1007C000C118FFF78AFE10BDEA2310B500689B0030
:1007D000C118FFF782FE10BD10B50068024BC118AA
:1007E000FFF77BFE10BDC0462C04000010B500686A
:1007F000C26FD3880133D380030000220833DB6F3C
:1008000019699A610A80DA61CB239B00C118FFF74E
:1008100064FE10BD0B1A9B10002B14DD0278002A19
:1008200003D04278002A01D1013070478278002A33
:1008300001D10230F9E7C278002A01D10330F4E790
:100840000430013BE8E70B1A022B09D0032B03D03D
:10085000012B09D00800E8E70378002BE5D0013030
:100860000378002BE1D001300378002BF2D1DCE7D4
:100870000B1A9B10002B14DD0278002A03D142785A
:10088000002A01D0013070478278002A01D002305E
:10089000F9E7C278002A01D00330F4E70430013BC5
:1008A000E8E70B1A022B09D0032B03D0012B09D048
:1008B0000800E8E70378002BE5D101300378002B2E
:1008C000E1D101300378002BF2D0DCE7436970B549
:1008D0005D1C040045610E492800FFF797FD0029C3
:1008E00006D1A3693C31581CA061FFF7A5FCE18348
:1008F000084B9D420AD10023A06963613C21FFF7A8
:1009000015FC2269A08313880133138070BDC04693
:1009100060EA000080EE360010B50400002C05D01F
:10092000236820001B6898476468F7E710BD000043
:10093000302210B50300007A5143114A002807D035
:1009400090681860814201D3081A5860002018721C
:100950001C68A14208D892680120A41AA14202D8BA
:10096000012200201A7210BD916801208C42FAD831
:10097000516892688A1A59688A42F1D2F3E7C046F0
:1009800010E000E003008C3310B504001868322139
:10099000421C1A60FFF750FC002904D188342068FB
:1009A00003685B68984710BD7047932310B50068D3
:1009B0009B00C118FFF791FD10BD932310B500688F
:1009C0009B00C118FFF789FD10BD932310B5006887
:1009D0009B00C118FFF781FD10BD006810B5010034
:1009E000F031FFF77AFD10BD006810B50100F0315D
:1009F000FFF773FD10BD000003691B0603D5024B12
:100A00004360024B4360704723016745AB89EFCDDC
:100A100001220369934303610223026913430361C3
:100A200080239B02C9184023890241610269134354
:100A300003617047F8B50500413504004669287820
:100A4000C0B2052836D8FFF767FB03173670B8E841
:100A5000220044321378E118F05C097E884200D00D
:100A6000F6E00133DBB2072B00D9002313705A42A2
:100A70005341403423701DE02069C368DB0719D45B
:100A800003691B0616D5FFF7B7FF022123691A6910
:100A90008A431A610122186902431A612300443310
:100AA0001A78013BB05C18701B78E06B1B02134393
:100AB00003802970F8BD2369DA689206FAD52022EE
:100AC000D9680A43DA60802219690A431A61210051
:100AD0002300443143331A780B78E3181A76E36B1A
:100AE000981C236AE063DA00A218166B7700D66AB6
:100AF0002200F6194232B04203D01378DBB22B70D9
:100B0000D8E70126E01805309B19C677B34200D913
:100B100000232362DB00E318DB6AE36300230B702E
:100B200001332B7004331370C4E72069C368DB07FB
:100B3000C0D403691B06BDD526002100243633002E
:100B400026318A1B9210002A20DD1F78002F03D146
:100B50005F78002F0DD0013399422BD09B1BA362ED
:100B6000FFF74AFFA36A3B4AD15CFFF751FF04231A
:100B7000C5E79F78002F01D00233EDE7DF78002F23
:100B800001D00333E8E70433013ADCE7CA1A022A4A
:100B900009D0032A03D0012A09D00B00DCE71A7818
:100BA000002AD9D101331A78002AD5D101331A7815
:100BB000002AD1D142342378A0E72369DA6892066B
:100BC00000D477E72022D968234E0A43DA608022D6
:100BD00019690A431A61A16ACB00E318DA6A1B6B30
:100BE0005B00D3181000934204D00232971E3F8856
:100BF000B742F7D01B1A260062182000591E8B41FD
:100C000005322636D37724303100FFF731FE032337
:100C1000864200D073E7002371E722004432137844
:100C20000133DBB2072B10D90023137026002000FC
:100C3000263631002430FFF71BFE0323864200D105
:100C400000232B704234002314E71370002BEDD0E7
:100C5000012354E7C5400008FFFF000010B5FFF76F
:100C600053FA10BD10B50468002C05D0236820008D
:100C70001B689847A468F7E710BD10B583680400A7
:100C8000002B02D0032201009847200010BD10B5B0
:100C900004000830FFF7E6FF20696169431C236107
:100CA000FFF7CAFA002902D12000FFF7DBFF10BDD1
:100CB00010B50248FFF7EBFF10BDC0462C02002024
:100CC000416902690023914201D343610133180055
:100CD00070470000037B002B0DD000234268037394
:100CE0008368002A0ED0002B08D0936083685A6076
:100CF00000234360836070470B60F8E7044993600A
:100D00004A60F5E70249002BF6D10B604B60EFE734
:100D10002C020020002310B54361FFF7DBFF10BD5C
:100D2000037B002B0CD101330373064B5A684260DE
:100D3000002A00D090601A685860002A00D118601C
:100D40007047C0462C020020012306C81032934091
:100D50008B617047036810B504009869FFF7F4FFD2
:100D6000C8216068FFF7E4FD0028F9D123689B697A
:100D700059681A6801238B409361C8216068FFF7A6
:100D8000D7FD0028F9D110BD70B504000D0003682F
:100D9000ED001869FFF7D8FF23686068DA699B6A7D
:100DA000EB589361FFF7D6FF23686068DA699B6AA6
:100DB0005D196B689361FFF7CDFF6421A068FFF7B1
:100DC000B7FD0028F9D170BD70B5437B0400012B3D
:100DD00023D0002B02D0022B2CD070BD01254069FE
:100DE000FFF7B2FF29002369606B1A685B68266A07
:100DF00099404319916163635021FFF71DFA124B2B
:100E00008900CB58626AF35CDB00D3181968E26989
:100E10005B689161E3626573DFE78069416802683E
:100E20008B409361FFF790FFE369E26A9A610223C6
:100E30006373D2E701238069416802688B40936144
:100E4000FFF782FF0023F3E7603F00080368426872
:100E5000012090401B690340581E8341D8B270475F
:100E6000012901D142637047022901D18263FAE767
:100E7000032901D1C263F6E70429F4D10264F2E741
:100E800010B54468E3898B420BD301802089484325
:100E9000FA218900FFF7D4F9A17A02002068FFF750
:100EA000DFFF10BD036870B51A008C321168013184
:100EB00011601168052901D1002111601268986F35
:100EC0000649883352001D68545A038BA34203D04D
:100ED00018302100FFF7D4FF2C8070BD543F00086C
:100EE000036870B51A008C321168002912D011689D
:100EF000013911601268986F0749883352001D68E4
:100F0000545A038BA34203D018302100FFF7B8FFD7
:100F10002C8070BD0421ECE7543F0008044B10B551
:100F20001868FFF7F9FC0122024B5A6010BDC04659
:100F30006401002000000240074B10B51868FFF75D
:100F4000EBFC1023054C6360054B1868FFF7E4FCCD
:100F500080235B00636010BD6C0100200000024034
:100F600074010020FEE70000054B10B51868FFF77C
:100F7000D3FC0121034A138A8B43138210BDC04660
:100F800014020020002C014010B5FFF7EDFF10BD4A
:100F9000054B10B51868FFF7BFFC0121034A138AFF
:100FA0008B43138210BDC0461C0200200004004089
:100FB000FEE7FEE7FEE70000044B10B51868FFF7F8
:100FC000ABFC0122024B52421A6210BD24020020E7
:100FD0000038014010B5094C6369DB0703D5084BA5
:100FE0001868FFF799FC63699B0703D5054B1868E0
:100FF000FFF792FC0323636110BDC046000401406B
:101000008C0100209401002010B5094C63695B0736
:1010100003D5084B1868FFF77FFC63691B0703D5EE
:10102000054B1868FFF778FC0C23636110BDC046C0
:1010300000040140CC010020D401002010B5304C48
:101040006369DB0603D52F4B1868FFF765FC6369FE
:101050009B0603D52C4B1868FFF75EFC63695B06A3
:1010600003D52A4B1868FFF757FC63691B0603D5A5
:10107000274B1868FFF750FC6369DB0503D5254B48
:101080001868FFF749FC63699B0503D5224B186874
:10109000FFF742FC63695B0503D5204B1868FFF737
:1010A0003BFC63691B0503D51D4B1868FFF734FC37
:1010B0006369DB0403D51B4B1868FFF72DFC6369DC
:1010C0009B0403D5184B1868FFF726FC63695B0483
:1010D00003D5164B1868FFF71FFC63691B0403D583
:1010E000134B1868FFF718FC10220523012001009C
:1010F000994001330A43102BF9D1626110BDC046FB
:1011000000040140DC010020E4010020EC0100208B
:10111000F4010020FC010020040200209C010020BA
:10112000A4010020AC010020B4010020BC0100207B
:10113000C401002010B5036804005A1CC3180260E3
:10114000597200685021FFF777F82000216010BD28
:1011500010B5142104000068FFF76EF8002903D1D0
:1011600020312000FFF7E6FF14212068FFF764F824
:10117000002901D02021F4E7200010BD10B50400A3
:101180002368002B04D020212000FFF7D3FFF7E7CE
:10119000200010BD70B504000D0000681421FEF79A
:1011A000C5FF1423584350214019FFF745F820008C
:1011B000216070BD70B505682A00AC321368002B41
:1011C0001AD02E001424A836013B136033686868D7
:1011D00063430F210360FFF7DDFF2021FFF7AAFF24
:1011E00033686868013B5C4333600F210460FFF79C
:1011F000D1FF7E21FFF79EFF70BD70B505682A0004
:10120000AC321368012B1AD02E001424A8360133F7
:1012100013603368686863430F210360FFF7BAFF08
:101220002021FFF787FF3368686801335C43336030
:101230000F210460FFF7AEFF7E21FFF77BFF70BD3B
:1012400070B50600437A04000C36002B05D000234D
:10125000C16143723000FFF763FD3000FFF730FDDE
:101260000125002804D03000FFF754FD65720025E9
:10127000280070BDF0B500278FB005AD04000C222A
:10128000390009A805976F6002F06EF90223FF3359
:101290002B816B46384EEF61EE602F620094019512
:1012A00002940393049564212800FFF7C9FF0028E6
:1012B000F9D12069FFF748FD6069FFF745FDA36993
:1012C00068461A68596801238B409361A26AE369F2
:1012D000D2699A61FFF73EFD05212800FFF7B0FFB4
:1012E0000028F9D1A26AE369D26968469A61FFF7DA
:1012F00031FD64212800FFF71BFB0028F9D1A26A09
:10130000E369D26968469A61FFF724FD322128001B
:10131000FFF70EFB0028F9D1A26AE369526968461B
:101320009A61FFF717FD32212800FFF701FB002823
:10133000F9D1282102A8FFF727FD0C2102A8FFF709
:1013400023FD062102A8FFF71FFD012102A8FFF7D8
:101350001BFD802102A8FFF717FD01212800FFF7E0
:101360006FFF0028F9D101233034237008A8EE6004
:10137000FFF7B0FC0FB0F0BD683E0008FA2110B5D1
:1013800044680088238989005843FEF759FFA17AF1
:1013900002002068FFF764FD10BD10B50400503056
:1013A000FFF76BFC20004030FFF767FC2000303077
:1013B000FFF763FC20002030FFF75FFC20001030B7
:1013C000FFF75BFC2000FFF758FC200010BD000079
:1013D0008022164B520219680A431A601A68920357
:1013E000FCD5F0215A688A435A605A6810490A406D
:1013F00003215A605A688A43110002220A435A6044
:101400005A680C491140802252030A435A608022D4
:10141000596852020A435A608022196852040A43EA
:101420001A601A689201FCD57047C046001002404D
:10143000FFF8FFFFFFFFC3FFF8B50123304E314A2D
:101440003168314C194232D1304D31492F681F4239
:1014500004D1304F2B600F6004274F608023556903
:10146000DB022B4353610B682B4D1F68AC462F40AA
:101470008025AD003D431D601F6A284D3D408027FB
:101480007F022F431F626746DD683D40DD60244BCD
:1014900061602360012300215B4223810233A37238
:1014A000A381E081218264612183E46133600223AE
:1014B000D1690B437021D36123689A698A43110073
:1014C00060220A439A61082299690A439A6180223C
:1014D00019680A431A60012219680A431A60B7237F
:1014E000228A9B009A4209D0606923820D4B0E4AE2
:1014F000038103681830DA62FFF740FF2000F8BD6F
:101500003401002000100240380100205801002062
:101510005C01002000040048FFFCFFFFFFFFF0FF1C
:10152000000400401280FFFF1280000070B515001B
:101530000C1A04D001002200280002F002F8281939
:1015400070BD0300F0B5093387B00193150006683C
:10155000027A04000F009B19002A2FD0132923D8E8
:101560001421C91B4A0898180390C0190290012938
:1015700003D02021180001F0F7FF039AE919280091
:10158000FFF7D4FF3200019B14329A18029BD21A43
:1015900003D02021180001F0E7FF2068143050210B
:1015A000FEF74AFE216017E00800143840082818AA
:1015B00001001A001431FFF7B9FFEEE75021EA19D4
:1015C000891B0292B9420CD91A00E9192800FFF7C9
:1015D000ADFF2368DF19276000232000237207B0C6
:1015E000F0BD3E0069181A002800FFF79FFF23682E
:1015F000503EF618B91B6D182800019A5035502E30
:1016000004D92900FFF792FF503EF5E70299FFF752
:101610008DFF2368F018C2E730B587B00A000400D8
:101620000F4903A802F0ACF803A8FFF717FB6368A3
:101630000025834200D91D1A013D04D3202120003A
:10164000FFF778FDF8E703A8FFF708FB03AA0100FE
:101650002000FFF776FF00232000636007B030BD55
:10166000B240000870B50500EB6F40681A880A2385
:101670000360092A36D9083B4360EB6F1988FFF7EE
:10168000CBFF28009430FFF71BFB2B009033197819
:1016900002000800504018700C23686803609142F3
:1016A00024D03A212C1DFFF745FDE36F68681A88A6
:1016B0000D230360092A1BD90B3B4360E36F2C0009
:1016C0001988FFF7A9FFAB6F68681A8B84341E2353
:1016D000C82A11D103602178FFF72CFD6868FFF755
:1016E0004DFD70BD0021FFF797FFC6E72021D9E728
:1016F0000021FFF791FFE1E7C82149008A4204D1A8
:1017000003602178FFF716FDE5E7962189008A42FC
:1017100004D103602178FFF70DFDF2E7C8210360D3
:1017200089008A4203D12178FFF704FDF2E721788E
:10173000FFF700FDF7E7002370B583608B680400B6
:101740000D00002B05D002229847EB68E360AB68E0
:10175000A360200070BD002370B583608B68040017
:101760000D00002B05D002229847EB68E360AB68C0
:10177000A360200070BD70B505000C00FFF7DBFF13
:101780002800210010301031FFF7D5FF280021007C
:1017900020302031FFF7CFFF2800210030303031DA
:1017A000FFF7C9FF2800210040304031FFF7D3FF89
:1017B0002800210050305031FFF7CDFF280070BDC8
:1017C000002370B583608B6804000D00002B05D0EA
:1017D00002229847EB68E360AB68A360200070BD0D
:1017E000836810B5002B01D101F073FEC3689847E0
:1017F00010BD30B50025040085B06946083002955B
:10180000FFF7EEFF6846FFF738FA20006946183008
:101810000295FFF7E5FF6846FFF72FFA20006946BB
:1018200038300295FFF7DCFF6846FFF726FA05B06F
:1018300030BD30B50025040085B0694608300295FA
:10184000FFF7CEFF6846FFF718FA20006946183008
:101850000295FFF7C5FF6846FFF70FFA20006946BB
:1018600038300295FFF7BCFF6846FFF706FA05B06F
:1018700030BD30B50025040085B06946283002959A
:10188000FFF7AEFF6846FFF7F8F920006946083019
:101890000295FFF7A5FF6846FFF7EFF920006946BC
:1018A00018300295FFF79CFF6846FFF7E6F9200025
:1018B000694638300295FFF793FF6846FFF7DDF978
:1018C00005B030BD30B50025040085B0694608304C
:1018D0000295FFF785FF6846FFF7CFF920006946BC
:1018E00018300295FFF77CFF6846FFF7C6F9200025
:1018F000694628300295FFF773FF6846FFF7BDF988
:101900002000694638300295FFF76AFF6846FFF706
:10191000B4F905B030BD30B50025040085B0694686
:1019200008300295FFF75CFF6846FFF7A6F9200034
:10193000694618300295FFF753FF6846FFF79DF997
:101940002000694628300295FFF74AFF6846FFF7F6
:1019500094F92000694638300295FFF741FF684648
:10196000FFF78BF905B030BD1FB504001D4B69466C
:1019700003931D4B009008300293FFF731FF684638
:10198000FFF77BF92000194B69460393184B183079
:1019900002930094FFF724FF6846FFF76EF92000DA
:1019A000144B69460393144B383002930094FFF7AD
:1019B00017FF6846FFF761F9002360680360E26F74
:1019C000A16FFFF7BEFDFFF7C3FB14236068036040
:1019D000231DDB6F1988FFF71FFE6068FFF7CEFB42
:1019E0001FBDC0469504000897040008AD04000818
:1019F000AF040008671B0008C50400087FB5154B3D
:101A000004000393144B6946009038300293FFF7AB
:101A1000E7FE6846FFF731F90023104D666828009D
:101A20003360FFF71BF92A00010000903000019598
:101A3000FFF787FD1423606803600F3B4360A36FCB
:101A40001988FFF7E9FDF721FFF774FB6068FFF7DE
:101A500095FB7FBD5B1B00087F040008B5400008B4
:101A60007FB504002B4B694603932B4B0090283025
:101A70000293FFF7B5FE6846FFF7FFF82000274BFB
:101A800069460393264B083002930094FFF7A8FEA3
:101A90006846FFF7F2F82000224B69460393224B79
:101AA000183002930094FFF79BFE6846FFF7E5F8B5
:101AB00020001E4B694603931D4B3830029300945F
:101AC000FFF78EFE6846FFF7D8F8656850222800B9
:101AD0002021093001F048FD00232B606668154D78
:101AE00033602800FFF7BAF82A00010000903000A8
:101AF0000195FFF726FD142365680F4C2B6020002D
:101B0000FFF7ACF822000100009028000194FFF7D5
:101B100018FD7FBD2504000827040008A50E000855
:101B20003D040008E10E0008530400084F1B0008A4
:101B300069040008A0400008A8400008836810B5A8
:101B4000002B01D101F0C5FCC368984710BD10B54A
:101B500000686830FFF7F2FF10BD10B5006868300C
:101B6000FFF7ECFF10BD10B500686830FFF7E6FF27
:101B700010BD006818220300DC331B6810B5534306
:101B8000C0188030FFF7DAFF10BD0068182203008C
:101B9000AC331B6810B55343C0188030FFF7CEFF3D
:101BA00010BD10B500686830FFF7C8FF10BD10B554
:101BB00000686830FFF7C2FF10BD0000F7B50120D4
:101BC000854D00912A68854B854C02426BD1854E2C
:101BD00085493268024004D19027FF050F604A60B2
:101BE00030608022032701265869920202435A611D
:101BF00008680268BA4332430260C268BA43C260EE
:101C00007A4A7B481768374205D19027FF0507605D
:101C100002271660476080225E69920216435E6169
:101C20003026B44600680768B743203E3E43674607
:101C30000660C668BE43C66001206E4E01923768DA
:101C4000074205D190226C4FD2053A60786030602F
:101C50005869019A684F02430C2084465A613A68D9
:101C6000166886430838304366461060D068B04333
:101C7000D06021615E49614A61619021C905E161DD
:101C80000099083221625E49226061625D4900224A
:101C9000A162210030316260A260A2810A70626399
:101CA0000132A7612A6001205749584A0D68054250
:101CB00005D19025ED05156003250860556080214C
:101CC000586989020143C025596140211268106892
:101CD000A843014301201160D168A943D1604C4958
:101CE0004C4A0D68054205D19025ED051560042587
:101CF000086055608021586989020143802059613C
:101D00001268454E15684000354028431060012098
:101D1000D1683140D1604149414A0D68054205D141
:101D20009025ED05156005250860556080215869EE
:101D3000890201438020596112683A4E1568C0003B
:101D40003540284310600120D1683140D1603649C8
:101D5000364A0D68054205D19025ED05156006252A
:101D600008605560802158698902014359618021CA
:101D700013682F4D18684901284001431960DA683B
:101D800020002A40DA60FFF775FA237B002B21D16F
:101D900001332373274BDA686260002A00D0946015
:101DA0009A68DC60002A00D19C60022101225961FE
:101DB000214B1868904318602048586000209860B4
:101DC0001D680430284318601868014319601968B9
:101DD0000A431A602000FEBDB0000020001002403F
:101DE000B40000200401002008010020F8000020B9
:101DF000FC000020EC000020F0000020EC50000867
:101E0000C8400008C8480008A4000020A80000201E
:101E1000980000209C000020FFFCFFFF8C000020A9
:101E200090000020FFF3FFFF8000002084000020CE
:101E3000FFCFFFFF2C02002010E000E0BF5D00009C
:101E4000002370B583608B6804000D00002B05D063
:101E500002229847EB68E360AB68A360200070BD86
:101E600010B504000CC90CC0FFF7AAFC200010BD7F
:101E7000C82388210022F0B5304C1B04A54449003A
:101E8000039302AB5B181A702D4B18310833439340
:101E90002C4B2D48479302AB5B18D8314F91519191
:101EA00046211A80294BFF314E93529353AB1A703F
:101EB00002AB5B181A70A32302A95B005B18FF2119
:101EC0001A7003AF54AB0492449245924B924D92D8
:101ED00050901A70489743AB9B1801321976082A24
:101EE000F9D1002105A801F03FFB4798FEF784FDDA
:101EF000002643AD2B6BEA6A5B00D3189C461400A6
:101F000005A9A4450FD02278072A08D843AB9A1810
:101F100001236078107622788B540234F1E722880E
:101F20000B4B9A42F9D15294EB6AA34212D14B96D1
:101F30000835012E1DD00126DCE7C0468CF7FFFFD7
:101F4000D450000800200240006400080068000827
:101F5000FFFF00002A6B52009B189C4201D100F049
:101F6000EEFC07A905A84B96FEF754FC07AB984278
:101F7000DED14B9B43A9DA008A18116BD26A490063
:101F8000521894420BD1EE4A02A95218D318ED4AC6
:101F90009B1801221A7000234B934E9B529307AC5F
:101FA000210005A8FEF736FC0500A04201D000F094
:101FB000CBFC489B0822180049A9009301F0B8FA0D
:101FC0000023A32102AA490052181370942202ABE5
:101FD00052009B181B78002B17D14B9B002B14D061
:101FE0004F9BD9485A0000934E9B19009A180B003A
:101FF0008A4201D000F0B4FC130094219B1A5A1EAF
:102000009341490002AA521813702A2202ABFF32F0
:102010009B181B78002B18D14B9B012B15D0519B83
:10202000509A0093C8485B00D3181100934204D023
:102030000232961E36888642F7D05B1A2A215A1E33
:102040009341FF3102AA52181370952602AB760015
:10205000F61831004CA8FEF70BFCB04205D0462123
:10206000032302AAFF31521813708023479A116983
:102070000B431361A54204D0C8231B040393002320
:10208000049343A8FEF74CFE0023B04A3BA84360EC
:10209000836003730832836143613B92429307611B
:1020A000FEF73EFEAA48FFF7C7F90290029BA94A35
:1020B000198A914208D058691A82A74B0268038195
:1020C000D3621830FFF75AF902987988038B8B4254
:1020D00002D01830FEF7D4FE02990A688B89106A84
:1020E0009E49034313629E4A6DAB6D929D4A012047
:1020F0005A6000220C689A60DA601A82DA61DA6249
:10210000DA63DA64DA65984A044204D1974C0860CD
:1021100014600D2454608021954D09036869954E23
:102120000143696111680C6834400C60C868002480
:1021300030400126C8605A669C66DE6689AB1C800A
:102140006EA8FEF7EDFD8C4A8AAB8A928B4A9C60A2
:102150005A608B4ADC6010681C82DC61DC62DC63E4
:10216000DC64DC658749304204D180481660086031
:102170000F20486080220024012668691203024370
:102180006A6108680268920092080260C268920060
:102190009208C26059669C66DE66A6AB1C808BA85E
:1021A000FEF7BEFD784AA7ABA7921C82774A784B10
:1021B000A8921A68A994AA94AE94B294B694BA94C8
:1021C000BE94324204D10E21724A68481E6003C296
:1021D00080236A691B036F4813436B6103686E4C6D
:1021E0001968C4AE21401960DA68A7AD2240DA60F0
:1021F00001230024C293C3ABC0901C80A8A8C19443
:10220000FEF78EFD654B02A80833C493644B502241
:102210001B18202118007460B46034733461746139
:102220003476029F01F0A0F95D4B02AA9B181900B9
:102230000020FFF7C3FC6DAB33678AAB736703AB5A
:10224000F3673BABE593FFAB0433E693554BF06686
:102250000E93554B0BA907A8B567E4970D93E79428
:102260000B96FFF768FA514B13A91693504B0FA822
:1022700015931396FFF75FFA4E4B1BA91E934E4B17
:1022800017A81D931B96FFF756FA4C4B23A92693CC
:102290004B4B1FA825932396FFF74DFA494B2FA9C7
:1022A0003293494B29A831932F96FFF754FA474BA5
:1022B00055A95893464B35A857935596FFF74BFAB7
:1022C00007A9E8A8FFF737FA0FA9ECA8FFF733FA38
:1022D00017A9F0A8FFF72FFA1FA9F4A8FFF72BFA08
:1022E00029A9F8A8FFF737FA35A9FCA8FFF733FAB0
:1022F00035A8FEF7C2FC55A8FEF7BFFC29A8FEF7DB
:10230000BCFC2FA8FEF7B9FC1FA8FEF7B6FC23A85B
:10231000FEF7B3FC17A8FEF7B0FC1BA8FEF7ADFC58
:102320000FA8FEF7AAFC13A8FEF7A7FC07A8FEF764
:10233000A4FC0BA8FEF7A1FCE8A955A84AE0C046FA
:1023400068080000C0F8FFFFFFFF0000C850000849
:10235000DE030000204E0000AF0400002801002032
:10236000D83E0008F83E00082C0100200008004874
:1023700000100240FFFFFFF3043F0008243F000865
:102380001C01002020010020303F0008503F0008C1
:102390001001002014010020FFFFFFCFE0500008D3
:1023A000210300003D2A0008F7040008752A0008F0
:1023B0000D050008AD2A000823050008052A0008BD
:1023C00039050008012B00084F050008392B0008CB
:1023D00065050008FFF7CFF9FA4B35A93893FA4B9A
:1023E0002FA837933596FFF7EBF9E49BFFAA0093EC
:1023F000F64B04321360FFAAC8AB0832FFA8136083
:1024000055A90C30E59DF76FFFF7B5F9FFA82FA987
:102410006C30FFF7D5F9009AFFAB1033DA662A006B
:102420001C321A67BA225200B4541E35BA1C5D67BA
:10243000DA67BE235B00F4500433F4540833F450DD
:10244000E34A0433F450083BF250CC22C825103341
:102450005200F4506D00B450FFA85C32F250745535
:102460009830FEF75DFC7B88C82B00D188E2AB4238
:1024700000D18DE296229200934200D18AE2C832C6
:10248000934200D188E2D34A934200D186E2BE2330
:102490002FA85B00F358FEF7F0FB35A8FEF7EDFB25
:1024A00055A8FEF77AFFE8A955A8FFF764F9CA4BCB
:1024B000C4AF2C93C94B29A923A82B932997FFF7C5
:1024C0007FF909232F93C64BC64A3093C64BC8AC3D
:1024D0003493C64BFFA833930A233593C44B55A9B5
:1024E0003693C44BB8303A93C34B31973993CE23CC
:1024F0005B00F2500433F4503797FFF73CF9BF48C4
:1025000002AB23A9C018FFF75BF9BD4802AB2FA9A6
:10251000C018FFF7A5FCBB4802AB35A9C018FFF7F0
:102520009FFC912300229B00F2500433F25037A805
:10253000FEF7A3FB31A8FEF7A0FB23A8FEF79DFB47
:1025400029A8FEF79AFB55A8FEF727FFE8A955A88A
:10255000FFF711F9AC4B1FAD2293AC4B29001BA820
:1025600021931F97FFF72CF90F23A94A2393249255
:10257000A84A29932892A84A35932792A74AA84B9C
:102580002A92A84A36932E92A74AA84B2D920E2241
:102590003A93A74B2F9239939323A64AA649349294
:1025A000A64A309125972B97319733923797A44AB3
:1025B0009B00F250A3480433F45002AB55A9C01855
:1025C000FFF7D9F8A04802AB1BA9C018FFF7F8F82D
:1025D0009E4802AB23A9C018FFF742FC9C4802ABFF
:1025E00029A9C018FFF73CFC9A4802AB2FA9C018D4
:1025F000FFF736FC984802AB35A9C018FFF730FC4E
:10260000C92300229B00F2500433F25037A8FEF792
:1026100034FB31A8FEF731FB2BA8FEF72EFB25A8D3
:10262000FEF72BFB1BA8FEF728FB2800FEF725FB77
:1026300055A8FEF7B2FEE8A955A8FFF79CF8874B0E
:1026400035A93893864B2FA837933597FFF7B8F8FD
:10265000F36F844A0093CB239B00F25082480433EB
:10266000F45002AB55A9C018FFF785F87F4802ABBC
:102670002FA9C018FFF7A4F8E92300999B00F15097
:102680002FA8FEF7FAFA35A8FEF7F7FA55A8FEF7D5
:1026900084FEE8A955A8FFF76EF8754B35A9389365
:1026A000744B2FA837933597FFF78AF86248FEF7E7
:1026B000D5FAF36F019006330093EA23D7206E49D1
:1026C0009B00F1500433F450C00002AB55A9C01870
:1026D000FFF751F8E32002ABC0002FA9C018FFF7A5
:1026E0006FF8019B02AA1F93534B2093E523DB0055
:1026F0009B1803CD03C385230099DB00F1502FA85D
:10270000FEF7BBFA35A8FEF7B8FA55A8FEF745FE66
:10271000E8A955A8FFF72FF8584B35A93893584B1F
:102720002FA837933597FFF74BF8564D2800FEF743
:1027300095FAF36F504904330093534B0190F150D5
:1027400052480433F45002AB55A9C018FFF713F8F0
:102750004F4802AB2FA9C018FFF732F8019B02AA1D
:102760001B934C4B1C959B181BA921C921C34A4B99
:1027700000992FA8F150FEF780FA35A8FEF77DFAF0
:1027800055A8FEF70AFEE8A955A8FEF7F4FF434B4B
:1027900029A92C93424B23A82B932997FFF710F8D4
:1027A0000B232F933F4BF82030933F4B0D4934932D
:1027B0003E4BC00033930C2335933D4B31973693FA
:1027C00078E0C0467B0700087B050008743E0008DF
:1027D000683E0008DE030000E909000891050008D2
:1027E000F8500008B03E000899070008A705000847
:1027F00002510008A9070008BD0500080C050000EB
:102800001C050000340500008B070008D3050008F4
:10281000B5400008B9070008E90500080D51000897
:102820002C510008ED070008FF050008D907000833
:102830002B060008C90700081D51000815060008EE
:10284000C43E00085C050000BC050000CC0500008B
:10285000E4050000FC05000014060000AB090008B8
:1028600041060008883E00083C0600009C06000067
:10287000BB090008570600089C3E0008CB09000869
:102880006D0600083C5100082C0400003C070000C5
:102890009C070000AC070000AC040000DB09000846
:1028A000830600084D510008990600089B060008A1
:1028B000595100083A4B37973A933A4B399396233C
:1028C000DB00F150384B55A9F45002ABC018FEF7AD
:1028D00052FF822002AB000123A9C018FEF770FF4F
:1028E000832002AB00012FA9C018FFF7B9FA2F48C7
:1028F00002AB35A9C018FFF7B3FAAB230022DB0007
:10290000F2502B4B37A8F250FEF7B7F931A8FEF77B
:10291000B4F923A8FEF7B1F929A8FEF7AEF955A836
:10292000FEF73BFD3800FEF7FBF9E69803681B68ED
:102930009847F36E30331B78002B1AD1FEE7012243
:102940004CAB9A55FFF7F4FA1A4B02AA9B184B9A14
:102950009B18194A9B1801221A700523FFF731FBB7
:1029600002318E1E3688864201D1FFF740FBFFF709
:1029700044FB02AB1B8902AA0133138130BFFDE780
:102980000E4B0E4A9B1ABE225B105200B3507EE5DE
:102990000B4BF6E70B4BF4E70B4BF2E70B4BF0E777
:1029A000A9090008B1060008B404000048080000A6
:1029B0005C05000068080000C0F8FFFF543F0008F5
:1029C000563F0008583F00085A3F00085C3F000887
:1029D00073B56B4604001A0060CC60C20A0030CAAE
:1029E00030C005CB05C173BD70B505000C00FFF705
:1029F000EFFFAB68A268AA60A360E268EB68EA60D8
:102A0000E36070BD30B50023040089B0080069465A
:102A10000293FFF7E9FF236869469C6F04A82368C7
:102A2000DD68FEF7CDFE04A92000A84704A8FEF744
:102A300024F96846FEF721F909B030BD30B500230E
:102A4000040089B0080069460293FFF7CDFF2368B0
:102A500069461C6F04A823689D68FEF7B1FE04A9AF
:102A60002000A84704A8FEF708F96846FEF705F914
:102A700009B030BD30B50023040089B008006946B4
:102A80000293FFF7B1FF236869465C6F04A82368CF
:102A90009D68FEF795FE04A92000A84704A8FEF74C
:102AA000ECF86846FEF7E9F809B030BD30B5002310
:102AB000040089B0080069460293FFF795FF236878
:102AC00069469C6F04A823689D68FEF779FE04A9F7
:102AD0002000A84704A8FEF7D0F86846FEF7CDF816
:102AE00009B030BD70B505000C00FFF771FFAB6891
:102AF000A268AA60A360E268EB68EA60E36070BD68
:102B000030B50023040089B0080069460293FFF73E
:102B1000E9FF236869461C6F04A823681D69FFF755
:102B20008FF904A92000A84704A8FEF7A6F8684674
:102B3000FEF7A3F809B030BD30B50023040089B01A
:102B4000080069460293FFF7CDFF236869465C6F72
:102B500004A823681D69FFF773F904A92000A8479A
:102B600004A8FEF78AF86846FEF787F809B030BD7A
:102B70001FB504006846FEF723FE21006846FFF7F4
:102B800033FF6846FEF779F8200004B010BD10B599
:102B90004430FFF7EDFF10BD10B53430FFF7E8FF0C
:102BA00010BD10B52430FFF7E3FF10BD10B5143091
:102BB000FFF7DEFF10BD10B54430FFF7D9FF10BDA1
:102BC00010B53430FFF7D4FF10BD10B52430FFF737
:102BD000CFFF10BD10B51430FFF7CAFF10BD10B500
:102BE0004430FFF7C5FF10BD10B53430FFF7C0FF0C
:102BF00010BD10B52430FFF7BBFF10BD10B5143069
:102C0000FFF7B6FF10BD1FB504006846FFF718F9BF
:102C100021006846FFF766FF6846FEF72EF82000A1
:102C200004B010BD10B55430FFF7EDFF10BD10B566
:102C30005430FFF7E8FF10BD10B55430FFF7E3FF45
:102C400010BD1FB500280BD06846FEF7B9FD029BEA
:102C5000002B02D06846FEF771FF6846FEF70DF8BC
:102C600005B000BD07B583680191002B01D100F0CC
:102C700030FCC36801A9984707BD0000F0B5040007
:102C800085B0406EFEF7E2F8002802D1A36E002B5B
:102C900033D0606EFEF7DAF8051E30D12600637C73
:102CA00070360700002B00D13778210068462431A8
:102CB000FEF786FD69463800FFF7C3FF6846FDF75B
:102CC000DCFF637C002B07D13578002D04D0230076
:102CD000012571331B785D40210068463431FEF7D1
:102CE0006FFD69462800FFF7ACFF6846FDF7C5FF9A
:102CF00000230122A366E266338005B0F0BDA36E17
:102D00005D1CA566092D24D9220070321378002B92
:102D100010D1210001331370657C14315D40684689
:102D2000FEF74EFD28006946FFF78BFF6846FDF76A
:102D3000A4FFE2E7234B9D420BD9220071321378A6
:102D4000002B06D1210001331370657C44315D40B6
:102D5000E5E7E36D002BD0D0FA26B600B542CCD91A
:102D6000FA23DB009D420BD8C8212800FDF764FA46
:102D70000029C2D1200001215430FFF773FFBCE7C6
:102D8000114B64219D42F0D9FA2332211B019D424F
:102D9000EBD919212800FDF74FFA0C4B9D42E7D9DA
:102DA0000029AAD12000E16E5430FFF75BFF31000B
:102DB000A06EFDF741FA00299FD1E36E0133E3666F
:102DC0009BE7C046E7030000B80B00008813000033
:102DD00008B4024B9C46043808BC60477D2C0008B0
:102DE000F0B5040085B0406EFEF730F8002802D13F
:102DF000A36E002B33D0606EFEF728F8051E30D18D
:102E00002600637C70360700002B00D13778210044
:102E100068462431FEF7D4FC69463800FFF711FFFD
:102E20006846FDF72AFF637C002B07D13578002D1B
:102E300004D02300012571331B785D4021006846D2
:102E40003431FEF7BDFC69462800FFF7FAFE6846FC
:102E5000FDF713FF00230122A366E266338005B06D
:102E6000F0BDA36E5D1CA566092D24D92200703229
:102E70001378002B10D1210001331370657C1431BD
:102E80005D406846FEF79CFC28006946FFF7D9FEC6
:102E90006846FDF7F2FEE2E7234B9D420BD9220084
:102EA00071321378002B06D1210001331370657C39
:102EB00044315D40E5E7E36D002BD0D0FA26B60043
:102EC000B542CCD9FA23DB009D420BD8C82128009B
:102ED000FDF7B2F90029C2D1200001215430FFF7DB
:102EE000C1FEBCE7114B64219D42F0D9FA23322187
:102EF0001B019D42EBD919212800FDF79DF90C4BD0
:102F00009D42E7D90029AAD12000E16E5430FFF795
:102F1000A9FE3100A06EFDF78FF900299FD1E36E65
:102F20000133E3669BE7C046E7030000B80B0000EF
:102F30008813000008B4024B9C46043808BC604764
:102F4000E12D0008F0B5040085B0406EFDF77EFF6E
:102F5000002802D1A36E002B33D0606EFDF776FF00
:102F6000051E30D12600637C70360700002B00D18F
:102F70003778210068462431FEF722FC6946380084
:102F8000FFF75FFE6846FDF778FE637C002B07D1F4
:102F90003578002D04D02300012571331B785D4066
:102FA000210068463431FEF70BFC69462800FFF724
:102FB00048FE6846FDF761FE00230122A366E26633
:102FC000338005B0F0BDA36E5D1CA566092D24D924
:102FD000220070321378002B10D1210001331370BE
:102FE000657C14315D406846FEF7EAFB28006946BF
:102FF000FFF727FE6846FDF740FEE2E7234B9D42C0
:103000000BD9220071321378002B06D12100013335
:103010001370657C44315D40E5E7E36D002BD0D053
:10302000FA26B600B542CCD9FA23DB009D420BD874
:10303000C8212800FDF700F90029C2D12000012194
:103040005430FFF70FFEBCE7114B64219D42F0D9CD
:10305000FA2332211B019D42EBD919212800FDF7EB
:10306000EBF80C4B9D42E7D90029AAD12000E16E74
:103070005430FFF7F7FD3100A06EFDF7DDF80029B1
:103080009FD1E36E0133E3669BE7C046E703000090
:10309000B80B00008813000008B4024B9C460438AB
:1030A00008BC6047452F0008F8B503000600182447
:1030B0000200DC33D8361B68316878325B1A5C4317
:1030C0001419270030370500B74200D93700002215
:1030D0006B681A606868A74207D021686268FEF7CB
:1030E00030FAFEF735F81834F4E7142332680F216C
:1030F00053430360FEF74EF87E21FEF71BF8F8BD40
:1031000070B504682200DC321368002B1ED0013B2E
:103110001360002B1BD12600D8363368002B16D045
:1031200014256B4360680F210360FEF733F82021FC
:10313000FEF700F833686068013B5D4333600F21A0
:103140000560FEF727F87E21FDF7F4FF70BD200033
:10315000FFF7AAFFFAE770B504682200DC321368B3
:10316000032B1ED001331360032B1BD12600D8364E
:103170003368012B16D014256B4360680F21036060
:10318000FEF708F82021FDF7D5FF336860680133AA
:103190005D4333600F210560FDF7FCFF7E21FDF7E5
:1031A000C9FF70BD2000FFF77FFFFAE71FB50400DD
:1031B0001B4B694603931B4B009008300293FEF7AC
:1031C0000FFB6846FDF759FD2000174B6946039336
:1031D000164B183002930094FEF702FB6846FDF789
:1031E0004CFD2000124B69460393124B283002938A
:1031F0000094FEF7F5FA6846FDF73FFD20000E4B00
:10320000694603930D4B383002930094FEF7E8FAB9
:103210006846FDF732FD2000FFF746FF1FBDC046A0
:1032200001310008CB06000857310008E10600080C
:10323000731B0008F7060008A31B00080D07000811
:10324000F8B50300060018240200AC33A8361B684A
:10325000316878325B1A5C43141927003037050057
:10326000B74200D9370000226B681A606868A7422D
:1032700007D021686268FEF764F9FDF769FF18342A
:10328000F4E7142332680F2153430360FDF782FFF4
:103290007E21FDF74FFFF8BD1FB504001B4B6946AB
:1032A00003931B4B009008300293FEF799FA68468F
:1032B000FDF7E3FC2000174B69460393164B1830CB
:1032C00002930094FEF78CFA6846FDF7D6FC2000C6
:1032D000124B69460393124B283002930094FEF779
:1032E0007FFA6846FDF7C9FC20000E4B6946039340
:1032F0000D4B383002930094FEF772FA6846FDF7E2
:10330000BCFC2000FFF79CFF1FBDC046B5110008A4
:1033100023070008FB110008390700088B1B000871
:103320004F070008AF1B00086507000800230121B4
:1033300010B5374A136053609360D36013615161D5
:10334000344A10688843106033485060042093600A
:103350001468204310600220146820431060106835
:103360000143116019212D4A136011712C4A023159
:10337000136011712B4A0E39136011712A4A0331FF
:1033800013601171294A073913601171284A0131FC
:1033900013601171274A13601171274A01311360BC
:1033A0001171264A13601171254A06391360117193
:1033B000244A13601171244A013113601171234AA8
:1033C00013601171072222490B600A7121490B60B9
:1033D0000A7121490B600A7120490B600A7120496A
:1033E0000B600A711F490B600A711F490B600A715B
:1033F0001E490B600A711E490B600A711D490B6062
:103400000A711D490B600A711C490B600A7110BDDD
:103410002C02002010E000E07FBB00000C02002026
:1034200024020020140200201C020020640100205D
:103430006C010020740100207C0100208401002028
:103440008C01002094010020CC010020D401002038
:10345000DC010020E4010020EC010020F401002048
:10346000FC010020040200209C010020A401002097
:10347000AC010020B4010020BC010020C4010020E8
:103480000D4885460D480E490E4A002302E0D458E7
:10349000C4500433C4188C42F9D30B4A0B4C00239C
:1034A00001E013600432A242FBD3FDF791FF00F06C
:1034B0001BF8FEF7DDFCFEE70010002000000020F6
:1034C00064000020A8510008640000206002002071
:1034D000FEE710B500F000F810B5062000F030F956
:1034E000012000F0AFFC000070B500260C4D0D4C23
:1034F000641BA410A64209D1002600F0A5FC0A4DC9
:103500000A4C641BA410A64205D170BDB300EB5851
:1035100098470136EEE7B300EB5898470136F2E7DB
:103520009C5100089C5100089C510008A4510008BF
:10353000002310B59A4200D110BDCC5CC4540133B5
:10354000F8E710B5884202D98B18984203D30023BC
:1035500007E08B5C8354013AFBD210BDCC5CC454B1
:1035600001339A42FAD1F8E703001218934200D1CE
:10357000704719700133F9E770B50500002910D0C4
:103580000C1F2368002B00DAE418280000F018F95B
:103590001D4A1368002B05D163601460280000F0F9
:1035A00017F970BDA34209D9216860188342F3D18D
:1035B00018685B6841182160EEE713005A68002A1A
:1035C00001D0A242F9D919685818A0420BD120683D
:1035D0000918581819608242E0D1106852684118E1
:1035E00019605A60DAE7A04202D90C232B60D5E7B4
:1035F00021686018824203D1106852684118216026
:1036000062605C60CAE7C04644020020F8B503234C
:10361000CD1C9D43083506000C2D1FD20C25A94258
:103620001ED8300000F0CCF825490A681400002CA0
:103630001AD1244F3B68002B04D12100300000F048
:1036400043F838602900300000F03EF8431C2AD1CE
:103650000C233000336000F0BBF803E0002DDEDA0D
:103660000C2333600020F8BD23685B1B18D40B2BA0
:1036700003D92360E418256003E06368A2420DD1FA
:103680000B60300000F0A4F8200007220B30231D4F
:103690009043C21AE7D01B1AA350E4E75360F0E747
:1036A00022006468C3E70323C41C9C43A042E2D009
:1036B000211A300000F008F8431CDCD1C8E7C046EE
:1036C0004402002048020020002370B5064C05008B
:1036D0000800236000F0A8FB431C03D12368002BE3
:1036E00000D02B6070BDC0465002002070B50400B1
:1036F0000D001F2904D9162303600120404270BD2C
:10370000436C002B04D08A009B181A68002A08D149
:10371000200000F031F82A000100200000F01AF823
:10372000EDE70020012AEAD0511C03D11623013015
:103730002360E4E7002428001C6090472000DEE7B7
:1037400010B5034B01001868FFF7D0FF10BDC0464D
:1037500000000020002370B5064C05000800110091
:10376000236000F059FB431C03D12368002B00D0D9
:103770002B6070BD5002002010B500F045FB10BD5D
:103780000EB400B50B499CB01DAB0290069007919A
:1037900004910948094904CB0591006802A90193E5
:1037A00000F080F80023029A13701CB008BC03B02C
:1037B0001847C046FFFFFF7F000000200802FFFF00
:1037C00010B5024800F0E4FA10BDC04658020020CF
:1037D00010B5024800F0DDFA10BDC04658020020C6
:1037E000F0B58E6885B007000C00039201939E42ED
:1037F0003CD890238A89DB001A4234D0032509691A
:1038000023685B1A0293636902985D43EB0F5D19AD
:10381000019B6D1001331B18AB4200D91D005305ED
:1038200032D529003800FFF7F1FE061E09D10C231E
:103830003B6040230120A28940421343A38105B08D
:10384000F0BD029A2169FFF773FEA389144A1A405A
:1038500080231343A381029B2661F61826606561CD
:10386000019EED1AA560019B9E4200D9019E320087
:1038700003992068FFF765FEA36800209B1BA360E7
:1038800023689E192660DAE72A00380000F08DFAD6
:10389000061EE0D121693800FFF76EFEC7E7C0467B
:1038A0007FFBFFFFF0B5A1B003901D008B890F00D7
:1038B00016001B0611D50B69002B0ED14021FFF716
:1038C000A5FE38603861002805D10C23039A013821
:1038D000136021B0F0BD40237B61002308AC63611D
:1038E000203363761033A376079535002B78002BB1
:1038F00001D0252B46D1AB1B05930CD032003900EB
:103900000398FFF76DFF431C00D1AEE06269059B91
:103910009446634463612B78002B00D1A5E001221B
:1039200000235242626004A9543252186E1C236074
:10393000E360A3601370A36531780522534800F05B
:1039400029FA751C00281FD12268D30604D55323F9
:1039500004A95B1820211970130704D5532304A967
:103960005B182B21197033782A2B16D035000021D3
:103970000A20E3682A786E1C303A092A4ED90029B9
:1039800011D117E00135B1E7404B2268C01A01237D
:103990008340134323602E00CEE7079B191D1B684D
:1039A0000791002B01DB0B9304E05B42E3600223F1
:1039B000134323602B782E2B0AD16B782A2B35D119
:1039C000079B02351A1D1B680792002B2BDB0993FE
:1039D0002F4E29780322300000F0DCF9002806D0B1
:1039E0004023801B834022680135134323602978DC
:1039F000062228486E1C217600F0CCF900283CD025
:103A0000254B002B25D10722079B0733934308330F
:103A100007936369049A9B18636166E74343012136
:103A20009B183500A6E701235B42D0E700230A205C
:103A30001A000135636029786E1C3039092903D9D1
:103A4000002BC5D00992C3E7424301235218350029
:103A5000F1E707AB00933A00104B2100039800E018
:103A600000BF0490049B0133D3D1BB890D985B0642
:103A700000D42EE7012040422BE707AB00933A0029
:103A8000064B2100039800F079F8EAE76651000838
:103A90006C5100087051000800000000E137000878
:103AA000F7B5150001938A680B6900900C009342EA
:103AB00000DA130022002B6043321278002A01D072
:103AC00001332B6023689B0602D52B6802332B60E1
:103AD000062723681F4027D0230043331B785A1E34
:103AE00093412268920630D4220001994332009813
:103AF000089EB047431C25D0062320682A68E16849
:103B000003400025042B03D18D1AEB43DB171D4026
:103B1000A3682269934201DD9B1AED180027BD427C
:103B200020D1002010E00137E3682A689B1ABB42CD
:103B3000D2DD22000123193201990098089EB04776
:103B4000431CF0D101204042FEBD3020E11843313A
:103B5000087021005A1C45310978A21843320233FB
:103B60001170C1E7220001231A3201990098089EC2
:103B7000B047431CE6D00137D1E70000F0B58BB069
:103B800006920A0043320793059004920A7E0C00C5
:103B9000109B6E2A00D1AFE020D8632A35D008D818
:103BA000002A00D1B5E0582A51D0260042363270A2
:103BB00032E0642A01D0692AF7D1196820680A1D09
:103BC00005062BD50D681A60002D03DA2D23049A03
:103BD0006D4213706C4B0A27039352E0732A00D195
:103BE0009BE008D86F2A1FD0702ADED120220968F6
:103BF0000A43226003E0752A16D0782AD5D1220024
:103C0000782145321170614A24E026001A68423654
:103C1000111D19601368337001238CE00D681A6060
:103C20004106D1D52DB2CFE719682568081D186067
:103C30002E0601D50D6803E06D06FBD50D68ADB20B
:103C4000514B0A2703936F2A17D1082715E04531F6
:103C50000A704D4A03921A68216820CA1A60080641
:103C600044D5CB0702D52023194321601027002D0E
:103C700003D1202322689A43226023000022433389
:103C80001A706368A360002B03DB04222168914350
:103C90002160002D02D1049E002B0AD0049E390021
:103CA0002800FCF7C9FA039B013E5B5C3370AF420E
:103CB00020D9082F09D12368DB0706D5636822695C
:103CC000934202DC3023013E3370049B9B1B236133
:103CD000079B09AA00932100069B0598FFF7E0FEC9
:103CE000431C2DD1012040420BB0F0BD4806B8D591
:103CF000ADB2B6E70500D2E71A680D68101D496934
:103D0000186013682E0601D5196002E06D06FBD518
:103D100019800023049E2361DAE71A68111D1960D7
:103D2000166800216268300000F034F8002801D0E5
:103D3000801B6060636823610023049A1370C7E7E7
:103D40002369320006990598079DA847431CC9D0EE
:103D500023689B0715D4099BE0689842C4DA1800D1
:103D6000C2E722000123193206990598079EB04741
:103D7000431CB7D00135E368099A9B1AAB42F0DCCB
:103D8000E9E70025F7E7C0467751000888510008A9
:103D900070477047C9B28218904201D10020704725
:103DA00003788B42FBD00130F6E7F8B507000D0031
:103DB0001600002905D11100FFF728FC040020009F
:103DC000F8BD002A03D1FFF7D7FB3400F7E700F076
:103DD00012F82C00B042F2D231003800FFF716FC86
:103DE000041EECD029003200FFF7A2FB29003800A6
:103DF000FFF7C2FBE3E70B1F1B68181F002B01DA5C
:103E00000B58C0187047000058220120014B404257
:103E10001A6070475002002058220120014B404296
:103E20001A60704750020020044A1368002B03D028
:103E30001818106018007047014BF9E74C02002079
:103E400060020020FEE7C046F8B5C046F8BC08BCDA
:103E50009E467047F8B5C046F8BC08BC9E46704701
:103E6000000000000000000019040008000000002D
:103E700000000000611A00086516000873180008A9
:103E80000000000000000000FD19000821040008E7
:103E90003318000800000000000000006919000845
:103EA00023040008F31700080000000000000000D1
:103EB00099320008C9060008171900080000000020
:103EC00000000000AD310008C7060008C518000852
:103ED0000000000000000000AD2B0008A32B00082C
:103EE000992B00088F2B0008252C0008452F00086F
:103EF000FCFFFFFF000000009930000800000000F8
:103F000000000000D52B0008CB2B0008C12B0008B7
:103F1000B72B00082F2C0008E12D0008FCFFFFFF45
:103F200000000000352F0008000000000000000025
:103F3000FD2B0008F32B0008E92B0008DF2B0008FD
:103F4000392C00087D2C0008FCFFFFFF000000005A
:103F5000D12D0008C800900158022003DE030000A4
:103F6000000000000100000002000000030000004B
:103F7000040000000500000006000000070000002B
:103F800008000000090000000A0000000B0000000B
:103F90000C0000000D0000000E0000000F000000EB
:103FA00010000000110000001200000013000000CB
:103FB00028000000290000002A0000002B0000005B
:103FC0002C0000002D0000002E0000002F0000003B
:103FD000300000003100000032000000330000001B
:103FE00034000000350000003600000037000000FB
:103FF00038000000390000003A0000003B000000DB
:10400000140000001500000016000000170000005A
:1040100018000000190000001A0000001B0000003A
:104020001C0000001D0000001E0000001F0000001A
:1040300020000000210000002200000023000000FA
:1040400024000000250000002600000027000000DA
:104050003C0000003D0000003E0000003F0000006A
:10406000400000004100000042000000430000004A
:10407000440000004500000046000000470000002A
:1040800048000000490000004A0000004B0000000A
:104090004C0000004D0000004E0000004F000000EA
:1040A000D0E0E1EEF2E02000CCEEF9EDEEF1F2FC32
:1040B0002000256400CEE1F9E0FF20EDE0F0E0E132
:1040C000EEF2EAE0001A1900000078000000780023
:1040D0000000780008007000000078001000680000
:1040E00000007800180060000000780020005800F0
:1040F00000007800280050000000780030004800E0
:1041000000007800380040000000780040003800CF
:1041100000007800480030000000780050002800BF
:1041200000007800580020000000780060001800AF
:10413000000078006800100000007800700008009F
:10414000000078007800000008007000000078008F
:10415000080070000800700008007000100068007F
:10416000080070001800600008007000200058006F
:10417000080070002800500008007000300048005F
:10418000080070003800400008007000400038004F
:10419000080070004800300008007000500028003F
:1041A000080070005800200008007000600018002F
:1041B000080070006800100008007000700008001F
:1041C000080070007800000010006800000078000F
:1041D00010006800080070001000680010006800FF
:1041E00010006800180060001000680020005800EF
:1041F00010006800280050001000680030004800DF
:1042000010006800380040001000680040003800CE
:1042100010006800480030001000680050002800BE
:1042200010006800580020001000680060001800AE
:10423000100068006800100010006800700008009E
:10424000100068007800000018006000000078008E
:10425000180060000800700018006000100068007E
:10426000180060001800600018006000200058006E
:10427000180060002800500018006000300048005E
:10428000180060003800400018006000400038004E
:10429000180060004800300018006000500028003E
:1042A000180060005800200018006000600018002E
:1042B000180060006800100018006000700008001E
:1042C000180060007800000020005800000078000E
:1042D00020005800080070002000580010006800FE
:1042E00020005800180060002000580020005800EE
:1042F00020005800280050002000580030004800DE
:1043000020005800380040002000580040003800CD
:1043100020005800480030002000580050002800BD
:1043200020005800580020002000580060001800AD
:10433000200058006800100020005800700008009D
:10434000200058007800000028005000000078008D
:10435000280050000800700028005000100068007D
:10436000280050001800600028005000200058006D
:10437000280050002800500028005000300048005D
:10438000280050003800400028005000400038004D
:10439000280050004800300028005000500028003D
:1043A000280050005800200028005000600018002D
:1043B000280050006800100028005000700008001D
:1043C000280050007800000030004800000078000D
:1043D00030004800080070003000480010006800FD
:1043E00030004800180060003000480020005800ED
:1043F00030004800280050003000480030004800DD
:1044000030004800380040003000480040003800CC
:1044100030004800480030003000480050002800BC
:1044200030004800580020003000480060001800AC
:10443000300048006800100030004800700008009C
:10444000300048007800000038004000000078008C
:10445000380040000800700038004000100068007C
:10446000380040001800600038004000200058006C
:10447000380040002800500038004000300048005C
:10448000380040003800400038004000400038004C
:10449000380040004800300038004000500028003C
:1044A000380040005800200038004000600018002C
:1044B000380040006800100038004000700008001C
:1044C000380040007800000040003800000078000C
:1044D00040003800080070004000380010006800FC
:1044E00040003800180060004000380020005800EC
:1044F00040003800280050004000380030004800DC
:1045000040003800380040004000380040003800CB
:1045100040003800480030004000380050002800BB
:1045200040003800580020004000380060001800AB
:10453000400038006800100040003800700008009B
:10454000400038007800000048003000000078008B
:10455000480030000800700048003000100068007B
:10456000480030001800600048003000200058006B
:10457000480030002800500048003000300048005B
:10458000480030003800400048003000400038004B
:10459000480030004800300048003000500028003B
:1045A000480030005800200048003000600018002B
:1045B000480030006800100048003000700008001B
:1045C000480030007800000050002800000078000B
:1045D00050002800080070005000280010006800FB
:1045E00050002800180060005000280020005800EB
:1045F00050002800280050005000280030004800DB
:1046000050002800380040005000280040003800CA
:1046100050002800480030005000280050002800BA
:1046200050002800580020005000280060001800AA
:10463000500028006800100050002800700008009A
:10464000500028007800000058002000000078008A
:10465000580020000800700058002000100068007A
:10466000580020001800600058002000200058006A
:10467000580020002800500058002000300048005A
:10468000580020003800400058002000400038004A
:10469000580020004800300058002000500028003A
:1046A000580020005800200058002000600018002A
:1046B000580020006800100058002000700008001A
:1046C000580020007800000020005800080070000A
:1046D00050002800000078002000580010006800FA
:1046E00050002800080070007000080000007800EA
:1046F00020005800280050005000280018006000DA
:1047000050002800200058005000280028005000C9
:1047100050002800300048002000580058002000B9
:1047200050002800380040002000580068001000A9
:104730002000580040003800200058007800000099
:104740005000280040003800280050000000780089
:104750002000580018006000280050002000580079
:104760005000280048003000500028005000280069
:104770002800500040003800700008000800700059
:104780005000280058002000500028006000180049
:104790007000080010006800500028006800100039
:1047A0005000280070000800500028006800100029
:1047B0005000280078000000580020000000780019
:1047C0005800200008007000300048000800700009
:1047D00058002000100068005800200018006000F9
:1047E00058002000200058007000080018006000E9
:1047F00030004800280050005800200030004800D9
:1048000058002000380040005800200040003800C8
:1048100058002000480030005800200050002800B8
:1048200058002000580020005800200060001800A8
:104830005800200068001000300048007800000098
:104840005800200070000800380040000000780088
:104850003000480018006000580020007800000078
:104860003800400048003000700008002000580068
:104870003800400040003800700008002800500058
:104880006000180000007800600018000800700048
:104890007000080030004800600018001000680038
:1048A0006000180018006000600018002000580028
:1048B0006000180028005000600018003000480018
:1048C0006000180038004000000078000000780008
:1048D00000007800080070000000780010006800F8
:1048E00000007800180060000000780020005800E8
:1048F00000007800280050000000780030004800D8
:1049000000007800380040000000780040003800C7
:1049100000007800480030000000780050002800B7
:1049200000007800580020000000780060001800A7
:104930000000780068001000000078007000080097
:104940000000780078000000080070000000780087
:104950000800700008007000080070001000680077
:104960000800700018006000080070002000580067
:104970000800700028005000080070003000480057
:104980000800700038004000080070004000380047
:104990000800700048003000080070005000280037
:1049A0000800700058002000080070006000180027
:1049B0000800700068001000080070007000080017
:1049C0000800700078000000100068000000780007
:1049D00010006800080070001000680010006800F7
:1049E00010006800180060001000680020005800E7
:1049F00010006800280050001000680030004800D7
:104A000010006800380040001000680040003800C6
:104A100010006800480030001000680050002800B6
:104A200010006800580020001000680060001800A6
:104A30001000680068001000100068007000080096
:104A40001000680078000000180060000000780086
:104A50001800600008007000180060001000680076
:104A60001800600018006000180060002000580066
:104A70001800600028005000180060003000480056
:104A80001800600038004000180060004000380046
:104A90001800600048003000180060005000280036
:104AA0001800600058002000180060006000180026
:104AB0001800600068001000180060007000080016
:104AC0001800600078000000200058000000780006
:104AD00020005800080070002000580010006800F6
:104AE00020005800180060002000580020005800E6
:104AF00020005800280050002000580030004800D6
:104B000020005800380040002000580040003800C5
:104B100020005800480030002000580050002800B5
:104B200020005800580020002000580060001800A5
:104B30002000580068001000200058007000080095
:104B40002000580078000000280050000000780085
:104B50002800500008007000280050001000680075
:104B60002800500018006000280050002000580065
:104B70002800500028005000280050003000480055
:104B80002800500038004000280050004000380045
:104B90002800500048003000280050005000280035
:104BA0002800500058002000280050006000180025
:104BB0002800500068001000280050007000080015
:104BC0002800500078000000300048000000780005
:104BD00030004800080070003000480010006800F5
:104BE00030004800180060003000480020005800E5
:104BF00030004800280050003000480030004800D5
:104C000030004800380040003000480040003800C4
:104C100030004800480030003000480050002800B4
:104C200030004800580020003000480060001800A4
:104C30003000480068001000300048007000080094
:104C40003000480078000000380040000000780084
:104C50003800400008007000380040001000680074
:104C60003800400018006000380040002000580064
:104C70003800400028005000380040003000480054
:104C80003800400038004000380040004000380044
:104C90003800400048003000380040005000280034
:104CA0003800400058002000380040006000180024
:104CB0003800400068001000380040007000080014
:104CC0003800400078000000400038000000780004
:104CD00040003800080070004000380010006800F4
:104CE00040003800180060004000380020005800E4
:104CF00040003800280050004000380030004800D4
:104D000040003800380040004000380040003800C3
:104D100040003800480030004000380050002800B3
:104D200040003800580020004000380060001800A3
:104D30004000380068001000400038007000080093
:104D40004000380078000000480030000000780083
:104D50004800300008007000480030001000680073
:104D60004800300018006000480030002000580063
:104D70004800300028005000480030003000480053
:104D80004800300038004000480030004000380043
:104D90004800300048003000480030005000280033
:104DA0004800300058002000480030006000180023
:104DB0004800300068001000480030007000080013
:104DC0004800300078000000500028000000780003
:104DD00050002800080070005000280010006800F3
:104DE00050002800180060005000280020005800E3
:104DF00050002800280050005000280030004800D3
:104E000050002800380040005000280040003800C2
:104E100050002800480030005000280050002800B2
:104E200050002800580020005000280060001800A2
:104E30005000280068001000500028007000080092
:104E40005000280078000000580020000000780082
:104E50005800200008007000580020001000680072
:104E60005800200018006000580020002000580062
:104E70005800200028005000580020003000480052
:104E80005800200038004000580020004000380042
:104E90005800200048003000580020005000280032
:104EA0005800200058002000580020006000180022
:104EB0005800200068001000580020007000080012
:104EC0005800200078000000600018000000780002
:104ED00060001800080070006000180010006800F2
:104EE00060001800180060006000180020005800E2
:104EF00060001800280050006000180030004800D2
:104F000060001800380040006000180040003800C1
:104F100060001800480030006000180050002800B1
:104F200060001800580020006000180060001800A1
:104F30006000180068001000600018007000080091
:104F40006000180078000000680010000000780081
:104F50006800100008007000680010001000680071
:104F60006800100018006000680010002000580061
:104F70006800100028005000680010003000480051
:104F80006800100038004000680010004000380041
:104F90006800100048003000680010005000280031
:104FA0006800100058002000680010006000180021
:104FB0006800100068001000680010007000080011
:104FC0006800100078000000700008000000780001
:104FD00070000800080070007000080010006800F1
:104FE00070000800180060007000080020005800E1
:104FF00070000800280050007000080030004800D1
:1050000070000800380040007000080040003800C0
:1050100070000800480030007000080050002800B0
:1050200070000800580020007000080060001800A0
:105030007000080068001000700008007000080090
:105040007000080078000000780000000000780080
:105050007800000008007000780000001000680070
:105060007800000018006000780000002000580060
:105070007800000028005000780000003000480050
:105080007800000038004000780000004000380040
:105090007800000048003000780000005000280030
:1050A0007800000058002000780000006000180020
:1050B0007800000068001000780000007000080010
:1050C00078000000780000000000000000000000F0
:1050D000CD0800080000000000000000350A0008AC
:1050E000000000000000000085090008000000002A
:1050F00000000000C90D0008CDE0F0E0E1EEF2EAAA
:10510000E000C8EDF4EEF0ECE0F6E8FF00D1E1F0ED
:10511000EEF120EDE0F0E0E1EEF2EAE800CAEEEBBD
:105120002DE2EE20F1E1F0EEF1EEE200CAEEEB2D21
:10513000E2EE20E2EAEB2FEEF2EAEB00CAEEEB2D14
:10514000E2EE20E2EAEBFEF7E5EDE8E900CDEEE283
:10515000EED2E5F52DDDCACE00CDE0F8E020F0E599
:10516000EAEBE0ECE000232D302B2000686C4C00D3
:105170006566674546470030313233343536373857
:1051800039414243444546003031323334353637B5
:0C5190003839616263646566000000004D
:08519C00E90000082D330008B2
:0451A400C10000083E
:1051A80004000020000000000000000000000000D3
:1051B80000000000000000000000000000000000E7
:1051C80000000000000000000000000000000000D7
:1051D80000000000000000000000000000000000C7
:1051E80000000000000000000000000000000000B7
:1051F80000000000000000000000000000000000A7
:0452080000000000A2
:04000005080034813A
:00000001FF
