:020000040800F2
:1000000000100020A1290008F1290008F1290008AA
:1000100000000000000000000000000000000000E0
:10002000000000000000000000000000F1290008AE
:100030000000000000000000F1290008C50B0008C6
:10004000F129000800000000F1290008F12900084A
:10005000F1290008350D0008690D00089D0D000804
:10006000000000007D0C0008990C0008C50C000879
:10007000F1290008C90C0008E90C00080000000084
:10008000F10C00080000000000000000110D000845
:1000900000000000130D0008150D0008F1290008EC
:1000A00000000000F129000800000000190D000800
:1000B0000000000000000000000000000000000040
:1000C00010B5064C2378002B07D1054B002B02D02E
:1000D000044800E000BF0123237010BD640000202D
:1000E0000000000068330008044B10B5002B03D05B
:1000F0000349044800E000BF10BDC04600000000F6
:1001000068000020683300080023C25C0133002A25
:10011000FBD1581E7047000002B4714649084900DF
:10012000095C49008E4402BC7047C0460022430867
:100130008B4274D303098B425FD3030A8B4244D3AF
:10014000030B8B4228D3030C8B420DD3FF220902F1
:1001500012BA030C8B4202D31212090265D0030BB0
:100160008B4219D300E0090AC30B8B4201D3CB03A6
:10017000C01A5241830B8B4201D38B03C01A5241E8
:10018000430B8B4201D34B03C01A5241030B8B42EA
:1001900001D30B03C01A5241C30A8B4201D3CB02D5
:1001A000C01A5241830A8B4201D38B02C01A5241BA
:1001B000430A8B4201D34B02C01A5241030A8B42BD
:1001C00001D30B02C01A5241CDD2C3098B4201D3D5
:1001D000CB01C01A524183098B4201D38B01C01A53
:1001E000524143098B4201D34B01C01A52410309CA
:1001F0008B4201D30B01C01A5241C3088B4201D379
:10020000CB00C01A524183088B4201D38B00C01A25
:10021000524143088B4201D34B00C01A5241411A4C
:1002200000D20146524110467047FFE701B5002059
:1002300000F0F0F802BDC0460029F7D076E770471D
:1002400003460B437FD4002243088B4274D3030937
:100250008B425FD3030A8B4244D3030B8B4228D3D8
:10026000030C8B420DD3FF22090212BA030C8B42FE
:1002700002D31212090265D0030B8B4219D300E09E
:10028000090AC30B8B4201D3CB03C01A5241830B23
:100290008B4201D38B03C01A5241430B8B4201D3D3
:1002A0004B03C01A5241030B8B4201D30B03C01AFC
:1002B0005241C30A8B4201D3CB02C01A5241830A76
:1002C0008B4201D38B02C01A5241430A8B4201D3A5
:1002D0004B02C01A5241030A8B4201D30B02C01ACF
:1002E0005241CDD2C3098B4201D3CB01C01A524136
:1002F00083098B4201D38B01C01A524143098B42BF
:1003000001D34B01C01A524103098B4201D30B01A7
:10031000C01A5241C3088B4201D3CB00C01A5241CC
:1003200083088B4201D38B00C01A524143088B4291
:1003300001D34B00C01A5241411A00D2014652412A
:10034000104670475DE0CA0F00D04942031000D349
:100350004042534000229C4603098B422DD3030A9E
:100360008B4212D3FC22890112BA030A8B420CD3AE
:10037000890192118B4208D3890192118B4204D3D7
:1003800089013AD0921100E08909C3098B4201D357
:10039000CB01C01A524183098B4201D38B01C01A91
:1003A000524143098B4201D34B01C01A5241030908
:1003B0008B4201D30B01C01A5241C3088B4201D3B7
:1003C000CB00C01A524183088B4201D38B00C01A64
:1003D0005241D9D243088B4201D34B00C01A52413B
:1003E000411A00D20146634652415B10104601D3C8
:1003F0004042002B00D54942704763465B1000D352
:10040000404201B5002000F005F802BD0029F8D0F7
:1004100016E770477047C046436901334361704730
:1004200070477047012A03D0022A03D0002070478A
:100430000160FBE70B680360F8E77047012A03D00F
:10044000022A03D0002070470160FBE70B680360BD
:10045000F8E77047012A03D0022A03D00020704732
:100460000160FBE70B680360F8E7012A03D0022A6A
:1004700003D0002070470160FBE70B680360F8E7DA
:10048000012A03D0022A03D0002070470160FBE755
:100490000B680360F8E7012A03D0022A03D000208A
:1004A00070470160FBE70B680360F8E7012A03D09F
:1004B000022A03D0002070470160FBE70B6803604D
:1004C000F8E7012A03D0022A03D000207047016018
:1004D000FBE70B680360F8E7012A03D0022A03D088
:1004E000002070470160FBE70B680360F8E7012A12
:1004F00003D0022A03D0002070470160FBE70B689D
:100500000360F8E7012A03D0022A03D000207047D5
:100510000160FBE70B680360F8E7012A03D0022AB9
:1005200003D0002070470160FBE70B680360F8E729
:10053000012A03D0022A03D0002070470160FBE7A4
:100540000B680360F8E7012A03D0022A03D00020D9
:1005500070470160FBE70B680360F8E7012A03D0EE
:10056000022A03D0002070470160FBE70B6803609C
:10057000F8E7012A03D0022A03D000207047016067
:10058000FBE70B680360F8E7012A03D0022A03D0D7
:10059000002070470160FBE70B680360F8E77047D5
:1005A000012A03D0022A03D0002070470160FBE734
:1005B0000B680360F8E7012A03D0022A03D0002069
:1005C00070470160FBE70B680360F8E77047012A9A
:1005D00003D0022A03D0002070470160FBE70B68BC
:1005E0000360F8E7012A03D0022A03D000207047F5
:1005F0000160FBE70B680360F8E7012A03D0022AD9
:1006000003D0002070470160FBE70B680360F8E748
:10061000012A03D0022A03D0002070470160FBE7C3
:100620000B680360F8E770B50C000500006803680C
:100630009B68984723682C601B682000984770BD12
:10064000006810B501006531FF318430FFF7EBFF22
:1006500010BD006810B501008430EC31FFF7E3FFF6
:1006600010BD852310B500689B00C1188430FFF7CA
:10067000DAFF10BDA42310B500689B00C1188430B8
:10068000FFF7D1FF10BD0B1A9B10002B14DD027871
:10069000002A03D04278002A01D1013070478278C5
:1006A000002A01D10230F9E7C278002A01D10330D3
:1006B000F4E70430013BE8E70B1A022B09D0032BC7
:1006C00003D0012B09D00800E8E70378002BE5D020
:1006D00001300378002BE1D001300378002BF2D1F8
:1006E000DCE70B1A9B10002B14DD0278002A03D1E3
:1006F0004278002A01D0013070478278002A01D068
:100700000230F9E7C278002A01D00330F4E7043060
:10071000013BE8E70B1A022B09D0032B03D0012B76
:1007200009D00800E8E70378002BE5D10130037811
:10073000002BE1D101300378002BF2D0DCE710B5BB
:100740000400002C05D0236820001B6898476468CB
:10075000F7E710BD302210B50300007A5143114A6B
:10076000002807D090681860814201D3081A5860A9
:10077000002018721C68A14208D892680120A41AAF
:10078000A14202D8012200201A7210BD91680120F6
:100790008C42FAD8516892688A1A59688A42F1D212
:1007A000F3E7C04610E000E0030010B50400883312
:1007B00018683221421C1A600834FFF73DFD0029F9
:1007C00003D1E06F03685B68984710BD704700680D
:1007D00010B501006531FF318430FFF724FF10BDF3
:1007E000006810B501008430EC31FFF71CFF10BD2C
:1007F00003691B0603D5024B4360024B43607047FD
:1008000023016745AB89EFCD01220369934303615F
:10081000022302691343036180239B02C91840230A
:10082000890241610269134303617047F8B505000D
:100830003D35040046692878C0B2052817D8FFF76F
:100840006BFC03173670B8E8220040321378E118C9
:10085000F05C097E884200D0F7E00133DBB2012B67
:1008600000D90023137001223C349A432270F8BD52
:100870002069C368DB07FAD403691B06F7D5FFF7C5
:10088000B7FF022123691A698A431A610122186994
:1008900002431A61230040331A78013BB05C1870A0
:1008A0001B78A06B1B02134303802970DFE72369C9
:1008B000DA689206DBD52022D9680A43DA60802202
:1008C00019690A431A612100230040313F331A7825
:1008D0000B78E3181A76A36B981CE369A063DA001F
:1008E000A218D66A7700966A2200F6193E32B04204
:1008F00003D01378DBB22B70B9E70126E018013082
:100900009B19C677B34200D90023E361DB00E318EB
:100910009B6AA36300230B7001332B7004331370A5
:10092000A5E72069C368DB07A1D403691B069ED530
:10093000260021002036330022318A1B9210002A23
:1009400020DD1F78002F03D15F78002F0DD00133F9
:1009500099422BD09B1B6362FFF74AFF636A3C4AB4
:10096000D15CFFF751FF0423C5E79F78002F01D02A
:100970000233EDE7DF78002F01D00333E8E70433DB
:10098000013ADCE7CA1A022A09D0032A03D0012A55
:1009900009D00B00DCE71A78002AD9D101331A7884
:1009A000002AD5D101331A78002AD1D13E342378D8
:1009B000A0E72369DA68920600D458E72022D968B4
:1009C000244E0A43DA60802219690A431A61616A77
:1009D000CB00E3189A6ADB6A5B00D31810009342DD
:1009E00004D00232971E3F88B742F7D01B1A260068
:1009F00062182000591E8B4101322236D3772030F5
:100A00003100FFF76EFE0323864200D073E7002318
:100A100071E72200403213780133DBB2012B11D988
:100A20000023137026002000223631002030FFF70B
:100A300058FE0323864200D100232B7000233E344E
:100A4000237014E71370002BECD0012353E7C0464A
:100A5000B6350008FFFF000010B5FFF755FB10BDCD
:100A6000012306C8103293408B617047036810B5AC
:100A700004009869FFF7F4FFC8216068FFF76AFE79
:100A80000028F9D123689B6959681A6801238B40B3
:100A90009361C8216068FFF75DFE0028F9D110BDA1
:100AA00070B504000D000368ED001869FFF7D8FF6A
:100AB00023686068DA699B6AEB589361FFF7D6FF99
:100AC00023686068DA699B6A5D196B689361FFF758
:100AD000CDFF6421A068FFF73DFE0028F9D170BD6D
:100AE00070B5437B0400012B23D0002B02D0022BD6
:100AF0002CD070BD01254069FFF7B2FF29002369A2
:100B0000606B1A685B68266A994043199161636358
:100B10005021FFF791FB124B8900CB58626AF35CBE
:100B2000DB00D3181968E2695B689161E362657361
:100B3000DFE78069416802688B409361FFF790FFAF
:100B4000E369E26A9A6102236373D2E70123806951
:100B5000416802688B409361FFF782FF0023F3E74F
:100B60004C34000803684268012090401B69034030
:100B7000581E8341D8B2704710B50468002C05D0C8
:100B8000236820001B689847A468F7E710BD10B5DC
:100B900083680400002B02D0032201009847200044
:100BA00010BD10B504000830FFF7E6FF2069616949
:100BB000431C2361FFF740FB002902D12000FFF70F
:100BC000DBFF10BD10B50248FFF7EBFF10BDC046BC
:100BD0002C020020416902690023914201D3436144
:100BE0000133180070470000037B002B0DD0002359
:100BF000426803738368002A0ED0002B08D09360EC
:100C000083685A6000234360836070470B60F8E795
:100C1000044993604A60F5E70249002BF6D10B6066
:100C20004B60EFE72C020020002310B54361FFF773
:100C3000DBFF10BD037B002B0CD101330373064B8C
:100C40005A684260002A00D090601A685860002AF2
:100C500000D118607047C0462C020020012901D144
:100C600042637047022901D18263FAE7032901D167
:100C7000C263F6E70429F4D10264F2E7044B10B52D
:100C80001868FFF75CFD0122024B5A6010BDC04698
:100C90006401002000000240074B10B51868FFF700
:100CA0004EFD1023054C6360054B1868FFF747FDA8
:100CB00080235B00636010BD6C01002000000240D7
:100CC00074010020FEE70000054B10B51868FFF71F
:100CD00036FD0121034A138A8B43138210BDC0469F
:100CE00014020020002C014010B5FFF7EDFF10BDED
:100CF000054B10B51868FFF722FD0121034A138A3E
:100D00008B43138210BDC0461C020020000400402B
:100D1000FEE7FEE7FEE70000044B10B51868FFF79A
:100D20000EFD0122024B52421A6210BD2402002025
:100D30000038014010B5094C6369DB0703D5084B47
:100D40001868FFF7FCFC63699B0703D5054B18681F
:100D5000FFF7F5FC0323636110BDC04600040140AA
:100D60008C0100209401002010B5094C63695B07D9
:100D700003D5084B1868FFF7E2FC63691B0703D52E
:100D8000054B1868FFF7DBFC0C23636110BDC04600
:100D900000040140CC010020D401002010B5304CEB
:100DA0006369DB0603D52F4B1868FFF7C8FC63693E
:100DB0009B0603D52C4B1868FFF7C1FC63695B06E3
:100DC00003D52A4B1868FFF7BAFC63691B0603D5E5
:100DD000274B1868FFF7B3FC6369DB0503D5254B88
:100DE0001868FFF7ACFC63699B0503D5224B1868B4
:100DF000FFF7A5FC63695B0503D5204B1868FFF777
:100E00009EFC63691B0503D51D4B1868FFF797FC13
:100E10006369DB0403D51B4B1868FFF790FC63691B
:100E20009B0403D5184B1868FFF789FC63695B04C2
:100E300003D5164B1868FFF782FC63691B0403D5C2
:100E4000134B1868FFF77BFC1022052301200100DB
:100E5000994001330A43102BF9D1626110BDC0469D
:100E600000040140DC010020E4010020EC0100202E
:100E7000F4010020FC010020040200209C0100205D
:100E8000A4010020AC010020B4010020BC0100201E
:100E9000C401002010B5036804005A1CC318026086
:100EA000597200685021FFF7C7F92000216010BD7A
:100EB00010B5142104000068FFF7BEF9002903D122
:100EC00020312000FFF7E6FF14212068FFF7B4F976
:100ED000002901D02021F4E7200010BD0A2310B51D
:100EE000040040683A210360FFF7D4FF1E236068C6
:100EF00025210360FFF7CEFF10BD70B504000D0083
:100F000000681421FFF712F91423584350214019A7
:100F1000FFF792F92000216070BD70B505682A00C6
:100F2000AC321368002B1AD02E001424A836013BD3
:100F300013603368686863430F210360FFF7DDFFC8
:100F40002021FFF7A7FF33686868013B5C433360EB
:100F50000F210460FFF7D1FF7E21FFF79BFF70BDDB
:100F600070B505682A00AC321368012B1AD02E0028
:100F70001424A836013313603368686863430F2173
:100F80000360FFF7BAFF2021FFF784FF336868682A
:100F900001335C4333600F210460FFF7AEFF7E2115
:100FA000FFF778FF70BD70B50600437A04000C3679
:100FB000002B05D00023C16143723000FFF73AFED9
:100FC0003000FFF707FE0125002804D03000FFF7AE
:100FD0002BFE65720025280070BD0000F0B50027CB
:100FE0008FB005AD04000C22390009A805976F6089
:100FF00001F04AFD0223FF332B816B46384EEF612F
:10100000EE602F620094019502940393049564218D
:101010002800FFF7C8FF0028F9D12069FFF720FD5D
:101020006069FFF71DFDA36968461A6859680123C6
:101030008B409361A26AE369D2699A61FFF716FD5A
:1010400005212800FFF7AFFF0028F9D1A26AE36964
:10105000D26968469A61FFF709FD64212800FFF70D
:1010600079FB0028F9D1A26AE369D26968469A61DE
:10107000FFF7FCFC32212800FFF76CFB0028F9D1B8
:10108000A26AE369526968469A61FFF7EFFC322170
:101090002800FFF75FFB0028F9D1282102A8FFF7FD
:1010A000FFFC0C2102A8FFF7FBFC062102A8FFF7BA
:1010B000F7FC012102A8FFF7F3FC802102A8FFF74B
:1010C000EFFC01212800FFF76EFF0028F9D1012372
:1010D0003034237008A8EE60FFF786FD0FB0F0BD36
:1010E0008833000810B504005030FFF750FD200091
:1010F0004030FFF74CFD20003030FFF748FD200066
:101100002030FFF744FD20001030FFF740FD2000A5
:10111000FFF73DFD200010BD8022164B52021968DA
:101120000A431A601A689203FCD5F0215A688A4370
:101130005A605A6810490A4003215A605A688A4323
:10114000110002220A435A605A680C491140802259
:1011500052030A435A608022596852020A435A6075
:101160008022196852040A431A601A689201FCD559
:101170007047C04600100240FFF8FFFFFFFFC3FFAB
:10118000F8B50123354E364A3168364C194232D112
:10119000354D36492F681F4204D1354F2B600F6003
:1011A00004274F6080235569DB022B4353610B6892
:1011B000304D1F68AC462F408025AD003D431D607B
:1011C0001F6A2D4D3D4080277F022F431F626746D7
:1011D000DD683D40DD60294B616023600123002113
:1011E0005B4223810233A372A381E0812182646187
:1011F0002183E46133600223D1690B437021D36101
:1012000023689A698A43110060220A439A6108227E
:1012100099690A439A61802219680A431A60012277
:1012200019680A431A60B723228A9B009A4212D097
:1012300024222382636919681A81CA62FA21DD694E
:10124000188B2A8989005043FEF7FAFFA97A020019
:101250002868FFF703FD2000F8BDC04634010020D8
:101260000010024038010020580100205C010020DD
:1012700000040048FFFCFFFFFFFFF0FF00040040F8
:1012800070B515000C1A04D001002200280001F0EE
:10129000E8FB281970BD0300F0B5093387B001934E
:1012A00015000668027A04000F009B19002A2FD04F
:1012B000132923D81421C91B4A0898180390C01970
:1012C0000290012903D02021180001F0DDFB039AD0
:1012D000E9192800FFF7D4FF3200019B14329A1855
:1012E000029BD21A03D02021180001F0CDFB206808
:1012F00014305021FEF7A0FF216017E008001438D9
:101300004008281801001A001431FFF7B9FFEEE772
:101310005021EA19891B0292B9420CD91A00E91925
:101320002800FFF7ADFF2368DF19276000232000A6
:10133000237207B0F0BD3E0069181A002800FFF7BD
:101340009FFF2368503EF618B91B6D182800019ABC
:101350005035502E04D92900FFF792FF503EF5E793
:101360000299FFF78DFF2368F018C2E730B587B008
:101370000A0004000F4903A801F092FC03A8FFF73C
:101380006BFB63680025834200D91D1A013D04D31D
:1013900020212000FFF77EFDF8E703A8FFF75CFBA4
:1013A00003AA01002000FFF776FF002320006360FE
:1013B00007B030BDB3350008002370B583608B687B
:1013C00004000D00002B05D002229847EB68E36073
:1013D000AB68A360200070BD002370B583608B688C
:1013E00004000D00002B05D002229847EB68E36053
:1013F000AB68A360200070BD70B505000C00FFF75E
:10140000DBFF2800210010301031FFF7D5FF280046
:10141000210020302031FFF7CFFF2800210030309D
:101420003031FFF7C9FF2800210040304031FFF77D
:10143000D3FF2800210050305031FFF7CDFF2800A6
:1014400070BD002370B583608B6804000D00002B15
:1014500005D002229847EB68E360AB68A3602000E8
:1014600070BD836810B5002B01D101F0C2FAC368CA
:10147000984710BD30B50025040085B06946083096
:101480000295FFF7EEFF6846FFF781FB20006946F3
:1014900018300295FFF7E5FF6846FFF778FB20005C
:1014A000694638300295FFF7DCFF6846FFF76FFBAF
:1014B00005B030BD30B50025040085B06946283040
:1014C0000295FFF7CEFF6846FFF761FB20006946F3
:1014D00008300295FFF7C5FF6846FFF758FB20006C
:1014E000694618300295FFF7BCFF6846FFF74FFBCF
:1014F0002000694638300295FFF7B3FF6846FFF7D2
:1015000046FB05B030BD30B50025040085B0694606
:1015100008300295FFF7A5FF6846FFF738FB20006B
:10152000694618300295FFF79CFF6846FFF72FFBCE
:101530002000694628300295FFF793FF6846FFF7C1
:1015400026FB2000694638300295FFF78AFF68467F
:10155000FFF71DFB05B030BD1FB50A4B0400039318
:10156000094B6946009038300293FFF77AFF6846CE
:10157000FFF70DFB002360680360A36F1988FFF776
:10158000F5FE1FBD87160008810400087FB5040022
:101590002B4B694603932B4B009028300293FFF7A7
:1015A00060FF6846FFF7F3FA2000274B6946039374
:1015B000264B083002930094FFF753FF6846FFF76D
:1015C000E6FA2000224B69460393224B183002931F
:1015D0000094FFF746FF6846FFF7D9FA20001E4B3C
:1015E000694603931D4B383002930094FFF739FF8F
:1015F0006846FFF7CCFA65685022280020210930A0
:1016000001F042FA00232B606668154D3360280014
:10161000FFF722FA2A000100009030000195FFF741
:101620003AFE142365680F4C2B602000FFF714FA74
:1016300022000100009028000194FFF72CFE7FBDDE
:1016400023040008250400083B0400083D040008AA
:1016500053040008550400087B1600086B040008BA
:101660008C3500089A350008836810B5002B01D12D
:1016700001F0BFF9C368984710BD10B50068683025
:10168000FFF7F2FF10BD10B500686830FFF7ECFF00
:1016900010BD006818220300AC331B6810B553431B
:1016A000C0188030FFF7E0FF10BD10B5006868304B
:1016B000FFF7DAFF10BD0000F7B50120854D00915E
:1016C0002A68854B854C02426BD1854E854932682C
:1016D000024004D19027FF050F604A6030608022ED
:1016E000032701265869920202435A61086802687A
:1016F000BA4332430260C268BA43C2607A4A7B4846
:101700001768374205D19027FF050760022716604A
:10171000476080225E69920216435E613026B446BD
:1017200000680768B743203E3E4367460660C668C8
:10173000BE43C66001206E4E01923768074205D154
:1017400090226C4FD2053A60786030605869019AF7
:10175000684F02430C2084465A613A6816688643F3
:101760000838304366461060D068B043D0602161CD
:101770005E49614A61619021C905E16100990832C1
:1017800021625E49226061625D490022A1622100FE
:1017900030316260A260A2810A7062630132A76187
:1017A0002A6001205749584A0D68054205D1902505
:1017B000ED05156003250860556080215869890290
:1017C0000143C0255961402112681068A8430143B4
:1017D00001201160D168A943D1604C494C4A0D6881
:1017E000054205D19025ED0515600425086055607A
:1017F0008021586989020143802059611268454E51
:10180000156840003540284310600120D168314000
:10181000D1604149414A0D68054205D19025ED0549
:1018200015600525086055608021586989020143CB
:101830008020596112683A4E1568C000354028432F
:1018400010600120D1683140D1603649364A0D68B8
:10185000054205D19025ED05156006250860556007
:1018600080215869890201435961802113682F4DF5
:1018700018684901284001431960DA6820002A40AD
:10188000DA60FFF7ABFB237B002B21D101332373FD
:10189000274BDA686260002A00D094609A68DC60A6
:1018A000002A00D19C60022101225961214B186855
:1018B0009043186020485860002098601D680430EC
:1018C0002843186018680143196019680A431A60B0
:1018D0002000FEBDB000002000100240B400002037
:1018E0000401002008010020F8000020FC00002076
:1018F000EC000020F0000020D0450008B8350008BA
:10190000B83D0008A4000020A80000209800002096
:101910009C000020FFFCFFFF8C00002090000020B6
:10192000FFF3FFFF8000002084000020FFCFFFFFB7
:101930002C02002010E000E0BF5D0000002370B525
:1019400083608B6804000D00002B05D002229847AD
:10195000EB68E360AB68A360200070BD70B5040065
:101960001D00124B4160036011000830FFF744FD79
:10197000200029006830FFF764FD230004997833C4
:1019800005C905C320008030FFF75BFD23000599E2
:10199000903305C905C31800FFF753FD220000234B
:1019A000A83220001360536070BDC046BC330008ED
:1019B000F0B5284C0025A5446B469D81264B36ACDE
:1019C00008333693254B8022A362449345AB1D70A8
:1019D0001623FF336B441D708B235B006B441D701B
:1019E00046AB1D7003AB636101235B4223836B46EF
:1019F0001B4992001B486560A5602573E262216364
:101A000062632061E561258465621D822600FEF720
:101A1000EFFEB26AF36A17005B00D31804A9BB4259
:101A20000ED03A78012A07D87878A21810760120CB
:101A30003A7888540237F2E73A880B488242F9D163
:101A40004497B36ABB4211D13D950836012D1ED093
:101A50000125DEE7E4F9FFFFB8450008005400085F
:101A60000050000800200240FFFF0000F26A520010
:101A70009B189F4200D1D4E212236B44190004A8A2
:101A80003D95FEF700FE12236B449842DDD13D9B4D
:101A9000DA00A218D16A926A4900521897420BD113
:101AA000C322D2006A44D318F04A9B1801221A704C
:101AB00000233D93409B449312266E44310004A8BA
:101AC000FEF7E1FD0500B04200D0AEE202223CA9E3
:101AD000606900F0BDFF00238B216A46490052185F
:101AE00013706B46F8229B181B78002B12D13D9B7C
:101AF000002B0FD0E36ADE485A00409B9A18190069
:101B00009A4200D09CE2521A511E8A416B46F8213B
:101B10005B181A706B46F9229B181B78002B16D1A4
:101B20003D9B012B13D0636B429A5B00D048D318C6
:101B30001100934204D00232971E3F888742F7D0AB
:101B40005B1A5A1E9341F9216A4652181370FA27FC
:101B50006F4439003EA8FEF7C4FDB84204D01623F6
:101B60000322FF336B441A708023226911690B43EF
:101B70001361B54202D000236A4693812000FFF72B
:101B800059F8BC48FFF7FCFABB4A5FAB5F92BB4A0F
:101B900005905A6001200022B9499A600C68DA6009
:101BA0001A82DA61DA62DA63DA64DA65B54A044223
:101BB00004D1B54C086014600D2454608021B34DED
:101BC00009036869B24E0143696111680C683440C9
:101BD0000C60C868002430400126C8605A669C66C4
:101BE000DE667BAB1C8060A8FFF724F8A94A7CABBB
:101BF0007C92A94A9C605A60A84ADC6010681C82EA
:101C0000DC61DC62DC63DC64DC65A549304204D164
:101C10009D48166008600F2048608022002401263D
:101C20006869120302436A610868026892009208B8
:101C30000260C26892009208C26059669C66DE66C5
:101C400098AB1C807DA8FEF7F5FF964A99AB999258
:101C50001C82954A954B9A921A689B949C94A094E6
:101C6000A494A894AC94B094324204D10E21904A2A
:101C700085481E6003C280236A691B038C48134396
:101C80006B6103688B4C1968002521401960DA6884
:101C900099AE2240DA600123B493B5AB1D80B290B7
:101CA0009AA8B395FEF7C6FF834BB6AC0833B6933C
:101CB000824B50226B446560A56025732561656188
:101CC000257620211800059F00F0DEFE7B4B0020CA
:101CD0006B441900FFF7F0FC5FAB23677CAB6367D5
:101CE00003ABE367F1ABD793754BE0660D93754B90
:101CF0000AA906A8D8950C93A667D6970A94FFF769
:101D00005BFB714B12A91593704B0EA814931294A0
:101D1000FFF752FB6E4B1AA91D936E4B16A81C932E
:101D20001A94FFF749FB6C4B22A925936B4B1EA815
:101D300024932294FFF740FB694B2AA92D93694B0A
:101D400026A82C932A94FFF747FB674B47A94A9391
:101D5000664B30A849934794FFF73EFB06A9D9A8E4
:101D6000FFF72AFB0EA9DDA8FFF726FB16A9E1A8BD
:101D7000FFF722FB1EA9E5A8FFF71EFB26A9E9A88D
:101D8000FFF72AFB30A9EDA8FFF726FB30A8FEF7E6
:101D9000FEFE47A8FEF7FBFE26A8FEF7F8FE2AA8DF
:101DA000FEF7F5FE1EA8FEF7F2FE22A8FEF7EFFEF4
:101DB00016A8FEF7ECFE1AA8FEF7E9FE0EA8FEF73D
:101DC000E6FE12A8FEF7E3FE06A8FEF7E0FE0AA86C
:101DD000FEF7DDFED9A947A8FFF70EFB444B30A95B
:101DE0003393444B2AA832933094FFF72AFB424B9B
:101DF00047A9F193F3A8BAABF293FFF7FDFAFFA856
:101E00002AA93030FFF71DFB2AA8FEF7C0FE30A834
:101E1000FEF7BDFE47A8FFF765F9D9A947A8FFF768
:101E2000EBFA364B26A92993354B22A82893269402
:101E3000FFF707FB12232A93324BFFA82B93324B59
:101E400047AA2F93314BBAA92E9314233093304BCA
:101E5000403031932F4B2C9435932F4B3294349345
:101E600030AB01932AAB009322AB57E0E0FAFFFFBF
:101E7000FFFF0000DE030000D0330008F03300084D
:101E8000280100202C01002000080048001002401A
:101E9000FFFFFFF3FC3300081C3400081C01002086
:101EA00020010020283400084834000810010020D8
:101EB00014010020FFFFFFCFC4450008F10200001D
:101EC000BD20000897040008F5200008AD040008B4
:101ED0002D210008C304000865210008D90400086A
:101EE000B9210008EF040008F121000805050008E9
:101EF000CF0700081B0500089433000853060008AC
:101F000031050008DC4500086306000847050008A5
:101F1000EF450008750600085D050008FFF71EFD87
:101F200032A8FEF734FE2CA8FEF731FE22A8FEF7F9
:101F30002EFE26A8FEF72BFE47A8FFF7D3F8D9A957
:101F400047A8FFF759FA434B30A93393424B2AA8CD
:101F500032933094FFF775FA8523404A9B00E25094
:101F6000FFA8BAAA0433E25047A9F830E56FFFF79B
:101F700043FA3B482AA96844FFF763FAA3239B006E
:101F8000E5502AA8FEF703FE30A8FEF700FE47A89A
:101F9000FFF7A8F8D9A947A8FFF72EFA314B26A9D1
:101FA0002993314B22A828932694FFF74AFA152348
:101FB0002A932E4BAD202B932D4BC0002F932D4BEE
:101FC00047AA2E93172330932B4BBAA931932B4B4F
:101FD000684435932A4B2C94349330AB01932AAB4D
:101FE000009322AB3294FFF7B9FC32A8FEF7CFFD85
:101FF0002CA8FEF7CCFD22A8FEF7C9FD26A8FEF707
:10200000C6FD47A8FFF76EF82000FEF713FED7982D
:1020100003681B689847E36E30331B78002B16D19A
:10202000FEE701223EAB5A550FE5C3233D9ADB0084
:102030006B449B18134A9B1801221A7005234BE529
:1020400002339F1E3F88874200D158E55BE530BFD1
:10205000FDE7C0464106000873050008A8330008E4
:1020600054050000E107000889050008044600083F
:102070009F050008A10500081A460008CD070008C2
:10208000B7050008E0FAFFFF73B56B4604001A00BD
:1020900060CC60C20A0030CA30C005CB05C173BD38
:1020A00070B505000C00FFF7EFFFAB68A268AA60EF
:1020B000A360E268EB68EA60E36070BD30B50023BE
:1020C000040089B0080069460293FFF7E9FF23681E
:1020D00069461C6F04A823689D68FFF7B2F904A93C
:1020E0002000A84704A8FEF752FD6846FEF74FFD02
:1020F00009B030BD30B50023040089B0080069463E
:102100000293FFF7CDFF236869465C6F04A823683C
:102110009D68FFF796F904A92000A84704A8FEF7D8
:1021200036FD6846FEF733FD09B030BD30B50023FB
:10213000040089B0080069460293FFF7B1FF2368E5
:1021400069469C6F04A823689D68FFF77AF904A983
:102150002000A84704A8FEF71AFD6846FEF717FD01
:1021600009B030BD30B50023040089B008006946CD
:102170000293FFF795FF236869469C6F04A82368C4
:10218000DD68FFF75EF904A92000A84704A8FEF760
:10219000FEFC6846FEF7FBFC09B030BD70B50500DB
:1021A0000C00FFF771FFAB68A268AA60A360E26849
:1021B000EB68EA60E36070BD30B50023040089B0CD
:1021C000080069460293FFF7E9FF236869461C6F20
:1021D00004A823681D69FFF7B1FB04A92000A847E4
:1021E00004A8FEF7D4FC6846FEF7D1FC09B030BD68
:1021F00030B50023040089B0080069460293FFF758
:10220000CDFF236869465C6F04A823681D69FFF74A
:1022100095FB04A92000A84704A8FEF7B8FC68466F
:10222000FEF7B5FC09B030BD1FB504006846FFF7E6
:1022300008F921006846FFF733FF6846FEF7A7FC60
:10224000200004B010BD10B54430FFF7EDFF10BD05
:1022500010B53430FFF7E8FF10BD10B52430FFF79C
:10226000E3FF10BD10B51430FFF7DEFF10BD10B551
:102270004430FFF7D9FF10BD10B53430FFF7D4FF5D
:1022800010BD10B52430FFF7CFFF10BD10B51430CE
:10229000FFF7CAFF10BD10B54430FFF7C5FF10BDF2
:1022A00010B53430FFF7C0FF10BD10B52430FFF774
:1022B000BBFF10BD10B51430FFF7B6FF10BD1FB542
:1022C00004006846FFF73AFB21006846FFF766FF07
:1022D0006846FEF75CFC200004B010BD10B5543019
:1022E000FFF7EDFF10BD10B55430FFF7E8FF10BD4C
:1022F00010B55430FFF7E3FF10BD1FB500280BD019
:102300006846FFF79EF8029B002B02D06846FFF755
:10231000ABF96846FEF73BFC05B000BD07B5836826
:102320000191002B01D100F064FBC36801A998471B
:1023300007BD0000F0B5040085B0406EFEF712FC4A
:10234000002802D1A36E002B33D0606EFEF70AFC8A
:10235000051E30D12600637C70360700002B00D1AB
:102360003778210068462431FFF76BF8694638005A
:10237000FFF7C3FF6846FEF70AFC637C002B07D11A
:102380003578002D04D02300012571331B785D4082
:10239000210068463431FFF754F869462800FFF7FA
:1023A000ACFF6846FEF7F3FB00230122A366E2665A
:1023B000338005B0F0BDA36E5D1CA566092D24D940
:1023C000220070321378002B10D1210001331370DA
:1023D000657C14315D406846FFF733F82800694694
:1023E000FFF78BFF6846FEF7D2FBE2E7234B9D42E7
:1023F0000BD9220071321378002B06D12100013352
:102400001370657C44315D40E5E7E36D002BD0D06F
:10241000FA26B600B542CCD9FA23DB009D420BD890
:10242000C8212800FDF708FF0029C2D120000121A2
:102430005430FFF773FFBCE7114B64219D42F0D984
:10244000FA2332211B019D42EBD919212800FDF707
:10245000F3FE0C4B9D42E7D90029AAD12000E16E82
:102460005430FFF75BFF3100A06EFDF7E5FE002959
:102470009FD1E36E0133E3669BE7C046E7030000AC
:10248000B80B00008813000008B4024B9C460438C7
:1024900008BC604735230008F0B5040085B0406EE5
:1024A000FEF760FB002802D1A36E002B33D0606ED4
:1024B000FEF758FB051E30D12600637C70360700FE
:1024C000002B00D13778210068462431FEF7B9FF90
:1024D00069463800FFF711FF6846FEF758FB637C3A
:1024E000002B07D13578002D04D02300012571334E
:1024F0001B785D40210068463431FEF7A2FF694633
:102500002800FFF7FAFE6846FEF741FB0023012290
:10251000A366E266338005B0F0BDA36E5D1CA566C0
:10252000092D24D9220070321378002B10D12100FC
:1025300001331370657C14315D406846FEF781FFFE
:1025400028006946FFF7D9FE6846FEF720FBE2E760
:10255000234B9D420BD9220071321378002B06D1F8
:10256000210001331370657C44315D40E5E7E36D84
:10257000002BD0D0FA26B600B542CCD9FA23DB0026
:102580009D420BD8C8212800FDF756FE0029C2D174
:10259000200001215430FFF7C1FEBCE7114B64213C
:1025A0009D42F0D9FA2332211B019D42EBD919211A
:1025B0002800FDF741FE0C4B9D42E7D90029AAD126
:1025C0002000E16E5430FFF7A9FE3100A06EFDF748
:1025D00033FE00299FD1E36E0133E3669BE7C046DB
:1025E000E7030000B80B00008813000008B4024B9A
:1025F0009C46043808BC604799240008F0B50400E4
:1026000085B0406EFEF7AEFA002802D1A36E002B13
:1026100033D0606EFEF7A6FA051E30D12600637C2B
:1026200070360700002B00D137782100684624312E
:10263000FEF707FF69463800FFF75FFE6846FEF7C2
:10264000A6FA637C002B07D13578002D04D0230037
:10265000012571331B785D40210068463431FEF757
:10266000F0FE69462800FFF748FE6846FEF78FFA3D
:1026700000230122A366E266338005B0F0BDA36E9D
:102680005D1CA566092D24D9220070321378002B19
:1026900010D1210001331370657C14315D40684610
:1026A000FEF7CFFE28006946FFF727FE6846FEF7D3
:1026B0006EFAE2E7234B9D420BD922007132137868
:1026C000002B06D1210001331370657C44315D403D
:1026D000E5E7E36D002BD0D0FA26B600B542CCD9A1
:1026E000FA23DB009D420BD8C8212800FDF7A4FD8A
:1026F0000029C2D1200001215430FFF70FFEBCE7B2
:10270000114B64219D42F0D9FA2332211B019D42D5
:10271000EBD919212800FDF78FFD0C4B9D42E7D91D
:102720000029AAD12000E16E5430FFF7F7FD3100F7
:10273000A06EFDF781FD00299FD1E36E0133E366B2
:102740009BE7C046E7030000B80B000088130000B9
:1027500008B4024B9C46043808BC6047FD250008BD
:10276000F8B50300060018240200AC33A8361B6835
:10277000316878325B1A5C43141927003037050042
:10278000B74200D9370000226B681A606868A74218
:1027900007D021686268FEF77EFDFEF789FB1834DA
:1027A000F4E7142332680F2153430360FEF7A5FBBF
:1027B0007E21FEF76FFBF8BD1FB504001B4B694679
:1027C00003931B4B009008300293FEF74AFE6846C5
:1027D000FEF7DDF92000174B69460393164B1830BE
:1027E00002930094FEF73DFE6846FEF7D0F9200004
:1027F000124B69460393124B283002930094FEF764
:1028000030FE6846FEF7C3F920000E4B694603937D
:102810000D4B383002930094FEF723FE6846FEF716
:10282000B6F92000FFF79CFF1FBDC0461B0F000834
:10283000CF050008610F0008E505000893160008A1
:10284000FB050008AB160008110600080023012153
:1028500010B5374A136053609360D36013615161C0
:10286000344A1068884310603348506004209360F5
:102870001468204310600220146820431060106820
:102880000143116019212D4A136011712C4A023144
:10289000136011712B4A0E39136011712A4A0331EA
:1028A00013601171294A073913601171284A0131E7
:1028B00013601171274A13601171274A01311360A7
:1028C0001171264A13601171254A0639136011717E
:1028D000244A13601171244A013113601171234A93
:1028E00013601171072222490B600A7121490B60A4
:1028F0000A7121490B600A7120490B600A71204955
:102900000B600A711F490B600A711F490B600A7145
:102910001E490B600A711E490B600A711D490B604C
:102920000A711D490B600A711C490B600A7110BDC8
:102930002C02002010E000E07FBB00000C02002011
:1029400024020020140200201C0200206401002048
:102950006C010020740100207C0100208401002013
:102960008C01002094010020CC010020D401002023
:10297000DC010020E4010020EC010020F401002033
:10298000FC010020040200209C010020A401002082
:10299000AC010020B4010020BC010020C4010020D3
:1029A0000D4885460D480E490E4A002302E0D458D2
:1029B000C4500433C4188C42F9D30B4A0B4C002387
:1029C00001E013600432A242FBD3FEF7A5FB00F046
:1029D0001BF8FEF7EDFFFEE70010002000000020CE
:1029E000640000207446000864000020600200209B
:1029F000FEE710B500F000F810B5062000F030F941
:102A0000012000F0AFFC000070B500260C4D0D4C0D
:102A1000641BA410A64209D1002600F0A5FC0A4DB3
:102A20000A4C641BA410A64205D170BDB300EB583C
:102A300098470136EEE7B300EB5898470136F2E7C6
:102A400068460008684600086846000870460008A6
:102A5000002310B59A4200D110BDCC5CC4540133A0
:102A6000F8E710B5884202D98B18984203D30023A7
:102A700007E08B5C8354013AFBD210BDCC5CC4549C
:102A800001339A42FAD1F8E703001218934200D1B9
:102A9000704719700133F9E770B50500002910D0AF
:102AA0000C1F2368002B00DAE418280000F018F946
:102AB0001D4A1368002B05D163601460280000F0E4
:102AC00017F970BDA34209D9216860188342F3D178
:102AD00018685B6841182160EEE713005A68002A05
:102AE00001D0A242F9D919685818A0420BD1206828
:102AF0000918581819608242E0D1106852684118CC
:102B000019605A60DAE7A04202D90C232B60D5E79E
:102B100021686018824203D1106852684118216010
:102B200062605C60CAE7C04644020020F8B5032337
:102B3000CD1C9D43083506000C2D1FD20C25A94243
:102B40001ED8300000F0CCF825490A681400002C8B
:102B50001AD1244F3B68002B04D12100300000F033
:102B600043F838602900300000F03EF8431C2AD1B9
:102B70000C233000336000F0BBF803E0002DDEDAF8
:102B80000C2333600020F8BD23685B1B18D40B2B8B
:102B900003D92360E418256003E06368A2420DD1E5
:102BA0000B60300000F0A4F8200007220B30231D3A
:102BB0009043C21AE7D01B1AA350E4E75360F0E732
:102BC00022006468C3E70323C41C9C43A042E2D0F4
:102BD000211A300000F008F8431CDCD1C8E7C046D9
:102BE0004402002048020020002370B5064C050076
:102BF0000800236000F0A8FB431C03D12368002BCE
:102C000000D02B6070BDC0465002002070B504009B
:102C10000D001F2904D9162303600120404270BD16
:102C2000436C002B04D08A009B181A68002A08D134
:102C3000200000F031F82A000100200000F01AF80E
:102C4000EDE70020012AEAD0511C03D11623013000
:102C50002360E4E7002428001C6090472000DEE7A2
:102C600010B5034B01001868FFF7D0FF10BDC04638
:102C700000000020002370B5064C0500080011007C
:102C8000236000F059FB431C03D12368002B00D0C4
:102C90002B6070BD5002002010B500F045FB10BD48
:102CA0000EB400B50B499CB01DAB02900690079185
:102CB00004910948094904CB0591006802A90193D0
:102CC00000F080F80023029A13701CB008BC03B017
:102CD0001847C046FFFFFF7F000000200802FFFFEB
:102CE00010B5024800F0E4FA10BDC04658020020BA
:102CF00010B5024800F0DDFA10BDC04658020020B1
:102D0000F0B58E6885B007000C00039201939E42D7
:102D10003CD890238A89DB001A4234D00325096904
:102D200023685B1A0293636902985D43EB0F5D1998
:102D3000019B6D1001331B18AB4200D91D005305D8
:102D400032D529003800FFF7F1FE061E09D10C2309
:102D50003B6040230120A28940421343A38105B078
:102D6000F0BD029A2169FFF773FEA389144A1A4045
:102D700080231343A381029B2661F61826606561B8
:102D8000019EED1AA560019B9E4200D9019E320072
:102D900003992068FFF765FEA36800209B1BA360D2
:102DA00023689E192660DAE72A00380000F08DFAC1
:102DB000061EE0D121693800FFF76EFEC7E7C04666
:102DC0007FFBFFFFF0B5A1B003901D008B890F00C2
:102DD00016001B0611D50B69002B0ED14021FFF701
:102DE000A5FE38603861002805D10C23039A01380C
:102DF000136021B0F0BD40237B61002308AC636108
:102E0000203363761033A376079535002B78002B9B
:102E100001D0252B46D1AB1B05930CD032003900D5
:102E20000398FFF76DFF431C00D1AEE06269059B7C
:102E30009446634463612B78002B00D1A5E0012206
:102E400000235242626004A9543252186E1C23605F
:102E5000E360A3601370A36531780522534800F046
:102E600029FA751C00281FD12268D30604D55323E4
:102E700004A95B1820211970130704D5532304A952
:102E80005B182B21197033782A2B16D035000021BE
:102E90000A20E3682A786E1C303A092A4ED90029A4
:102EA00011D117E00135B1E7404B2268C01A012368
:102EB0008340134323602E00CEE7079B191D1B6838
:102EC0000791002B01DB0B9304E05B42E3600223DC
:102ED000134323602B782E2B0AD16B782A2B35D104
:102EE000079B02351A1D1B680792002B2BDB0993E9
:102EF0002F4E29780322300000F0DCF9002806D09C
:102F00004023801B834022680135134323602978C6
:102F1000062228486E1C217600F0CCF900283CD00F
:102F2000254B002B25D10722079B073393430833FA
:102F300007936369049A9B18636166E74343012121
:102F40009B183500A6E701235B42D0E700230A2047
:102F50001A000135636029786E1C3039092903D9BC
:102F6000002BC5D00992C3E7424301235218350014
:102F7000F1E707AB00933A00104B2100039800E003
:102F800000BF0490049B0133D3D1BB890D985B062D
:102F900000D42EE7012040422BE707AB00933A0014
:102FA000064B2100039800F079F8EAE73246000862
:102FB000384600083C46000800000000012D0008CB
:102FC000F7B5150001938A680B6900900C009342D5
:102FD00000DA130022002B6043321278002A01D05D
:102FE00001332B6023689B0602D52B6802332B60CC
:102FF000062723681F4027D0230043331B785A1E1F
:1030000093412268920630D42200019943320098FD
:10301000089EB047431C25D0062320682A68E16833
:1030200003400025042B03D18D1AEB43DB171D4011
:10303000A3682269934201DD9B1AED180027BD4267
:1030400020D1002010E00137E3682A689B1ABB42B8
:10305000D2DD22000123193201990098089EB04761
:10306000431CF0D101204042FEBD3020E118433125
:10307000087021005A1C45310978A21843320233E6
:103080001170C1E7220001231A3201990098089EAD
:10309000B047431CE6D00137D1E70000F0B58BB054
:1030A00006920A0043320793059004920A7E0C00B0
:1030B000109B6E2A00D1AFE020D8632A35D008D803
:1030C000002A00D1B5E0582A51D02600423632708D
:1030D00032E0642A01D0692AF7D1196820680A1DF4
:1030E00005062BD50D681A60002D03DA2D23049AEE
:1030F0006D4213706C4B0A27039352E0732A00D180
:103100009BE008D86F2A1FD0702ADED120220968E0
:103110000A43226003E0752A16D0782AD5D122000E
:10312000782145321170614A24E026001A6842363F
:10313000111D19601368337001238CE00D681A604B
:103140004106D1D52DB2CFE719682568081D186052
:103150002E0601D50D6803E06D06FBD50D68ADB2F6
:10316000514B0A2703936F2A17D1082715E04531E1
:103170000A704D4A03921A68216820CA1A6008062C
:1031800044D5CB0702D52023194321601027002DF9
:1031900003D1202322689A43226023000022433374
:1031A0001A706368A360002B03DB0422216891433B
:1031B0002160002D02D1049E002B0AD0049E39000C
:1031C0002800FDF739F8039B013E5B5C3370AF428A
:1031D00020D9082F09D12368DB0706D56368226947
:1031E000934202DC3023013E3370049B9B1B23611E
:1031F000079B09AA00932100069B0598FFF7E0FEB4
:10320000431C2DD1012040420BB0F0BD4806B8D57B
:10321000ADB2B6E70500D2E71A680D68101D49691E
:10322000186013682E0601D5196002E06D06FBD503
:1032300019800023049E2361DAE71A68111D1960C2
:10324000166800216268300000F034F8002801D0D0
:10325000801B6060636823610023049A1370C7E7D2
:103260002369320006990598079DA847431CC9D0D9
:1032700023689B0715D4099BE0689842C4DA1800BC
:10328000C2E722000123193206990598079EB0472C
:10329000431CB7D00135E368099A9B1AAB42F0DCB6
:1032A000E9E70025F7E7C046434600085446000812
:1032B00070477047C9B28218904201D10020704710
:1032C00003788B42FBD00130F6E7F8B507000D001C
:1032D0001600002905D11100FFF728FC040020008A
:1032E000F8BD002A03D1FFF7D7FB3400F7E700F061
:1032F00012F82C00B042F2D231003800FFF716FC71
:10330000041EECD029003200FFF7A2FB2900380090
:10331000FFF7C2FBE3E70B1F1B68181F002B01DA46
:103320000B58C0187047000058220120014B404242
:103330001A6070475002002058220120014B404281
:103340001A60704750020020044A1368002B03D013
:103350001818106018007047014BF9E74C02002064
:1033600060020020FEE7C046F8B5C046F8BC08BCC5
:103370009E467047F8B5C046F8BC08BC9E467047EC
:103380000000000000000000190400080000000018
:10339000000000008D150008DD0E0008B5140008BF
:1033A000000000000000000059150008210400087A
:1033B000751400080000000000000000B927000894
:1033C000CD050008071500080000000000000000FF
:1033D000652200085B2200085122000847220008ED
:1033E000DD220008FD250008FCFFFFFF00000000B3
:1033F0005127000800000000000000008D22000896
:1034000083220008792200086F220008E7220008C2
:1034100099240008FCFFFFFF00000000ED250008D4
:103420000000000000000000B5220008AB220008E8
:10343000A122000897220008F12200083523000885
:10344000FCFFFFFF000000008924000800000000CE
:103450000100000002000000030000000400000062
:103460000500000006000000070000000800000042
:10347000090000000A0000000B0000000C00000022
:103480000D0000000E0000000F0000001000000002
:1034900011000000120000001300000028000000CE
:1034A000290000002A0000002B0000002C00000072
:1034B0002D0000002E0000002F0000003000000052
:1034C0003100000032000000330000003400000032
:1034D0003500000036000000370000003800000012
:1034E000390000003A0000003B000000140000001A
:1034F0001500000016000000170000001800000072
:10350000190000001A0000001B0000001C00000051
:103510001D0000001E0000001F0000002000000031
:103520002100000022000000230000002400000011
:103530002500000026000000270000003C000000DD
:103540003D0000003E0000003F0000004000000081
:103550004100000042000000430000004400000061
:103560004500000046000000470000004800000041
:10357000490000004A0000004B0000004C00000021
:103580004D0000004E0000004F000000D0A0D0B061
:10359000D0B1D0BED182D0B02000D0A0D0B5D0B6AE
:1035A000D0B8D0BC20D180D0B0D0B1D0BED182D1E3
:1035B0008B200025640015140000780000007800BE
:1035C000000078000800700000007800100068001B
:1035D000000078001800600000007800200058000B
:1035E00000007800280050000000780030004800FB
:1035F00000007800380040000000780040003800EB
:1036000000007800480030000000780050002800DA
:1036100000007800580020000000780060001800CA
:1036200000007800680010000000780070000800BA
:1036300000007800780000000800700000007800AA
:10364000080070000800700008007000100068009A
:10365000080070001800600008007000200058008A
:10366000080070002800500008007000300048007A
:10367000080070003800400008007000400038006A
:10368000080070004800300008007000500028005A
:10369000080070005800200008007000600018004A
:1036A000080070006800100008007000700008003A
:1036B000080070007800000010006800000078002A
:1036C000100068000800700010006800100068001A
:1036D000100068001800600010006800200058000A
:1036E00010006800280050001000680030004800FA
:1036F00010006800380040001000680040003800EA
:1037000010006800480030001000680050002800D9
:1037100010006800580020001000680060001800C9
:1037200010006800680010001000680070000800B9
:1037300010006800780000001800600000007800A9
:103740001800600008007000180060001000680099
:103750001800600018006000180060002000580089
:103760001800600028005000180060003000480079
:103770001800600038004000180060004000380069
:103780001800600048003000180060005000280059
:103790001800600058002000180060006000180049
:1037A0001800600068001000180060007000080039
:1037B0001800600078000000200058000000780029
:1037C0002000580008007000200058001000680019
:1037D0002000580018006000200058002000580009
:1037E00020005800280050002000580030004800F9
:1037F00020005800380040002000580040003800E9
:1038000020005800480030002000580050002800D8
:1038100020005800580020002000580060001800C8
:1038200020005800680010002000580070000800B8
:1038300020005800780000002800500000007800A8
:103840002800500008007000280050001000680098
:103850002800500018006000280050002000580088
:103860002800500028005000280050003000480078
:103870002800500038004000280050004000380068
:103880002800500048003000280050005000280058
:103890002800500058002000280050006000180048
:1038A0002800500068001000280050007000080038
:1038B0002800500078000000300048000000780028
:1038C0003000480008007000300048001000680018
:1038D0003000480018006000300048002000580008
:1038E00030004800280050003000480030004800F8
:1038F00030004800380040003000480040003800E8
:1039000030004800480030003000480050002800D7
:1039100030004800580020003000480060001800C7
:1039200030004800680010003000480070000800B7
:1039300030004800780000003800400000007800A7
:103940003800400008007000380040001000680097
:103950003800400018006000380040002000580087
:103960003800400028005000380040003000480077
:103970003800400038004000380040004000380067
:103980003800400048003000380040005000280057
:103990003800400058002000380040006000180047
:1039A0003800400068001000380040007000080037
:1039B0003800400078000000400038000000780027
:1039C0004000380008007000400038001000680017
:1039D0004000380018006000400038002000580007
:1039E00040003800280050004000380030004800F7
:1039F00040003800380040004000380040003800E7
:103A000040003800480030004000380050002800D6
:103A100040003800580020004000380060001800C6
:103A200040003800680010004000380070000800B6
:103A300040003800780000004800300000007800A6
:103A40004800300008007000480030001000680096
:103A50004800300018006000480030002000580086
:103A60004800300028005000480030003000480076
:103A70004800300038004000480030004000380066
:103A80004800300048003000480030005000280056
:103A90004800300058002000480030006000180046
:103AA0004800300068001000480030007000080036
:103AB0004800300078000000500028000000780026
:103AC0005000280008007000500028001000680016
:103AD0005000280018006000500028002000580006
:103AE00050002800280050005000280030004800F6
:103AF00050002800380040005000280040003800E6
:103B000050002800480030005000280050002800D5
:103B100050002800580020005000280060001800C5
:103B200050002800680010005000280070000800B5
:103B300050002800780000005800200000007800A5
:103B40005800200008007000580020001000680095
:103B50005800200018006000580020002000580085
:103B60005800200028005000580020003000480075
:103B70005800200038004000580020004000380065
:103B80005800200048003000580020005000280055
:103B90005800200058002000580020006000180045
:103BA0005800200068001000580020007000080035
:103BB0005800200078000000200058000800700025
:103BC0005000280000007800200058001000680015
:103BD0005000280008007000700008000000780005
:103BE00020005800280050005000280018006000F5
:103BF00050002800200058005000280028005000E5
:103C000050002800300048002000580058002000D4
:103C100050002800380040002000580068001000C4
:103C200020005800400038002000580078000000B4
:103C300050002800400038002800500000007800A4
:103C40002000580018006000280050002000580094
:103C50005000280048003000500028005000280084
:103C60002800500040003800700008000800700074
:103C70005000280058002000500028006000180064
:103C80007000080010006800500028006800100054
:103C90005000280070000800500028006800100044
:103CA0005000280078000000580020000000780034
:103CB0005800200008007000300048000800700024
:103CC0005800200010006800580020001800600014
:103CD0005800200020005800700008001800600004
:103CE00030004800280050005800200030004800F4
:103CF00058002000380040005800200040003800E4
:103D000058002000480030005800200050002800D3
:103D100058002000580020005800200060001800C3
:103D200058002000680010003000480078000000B3
:103D300058002000700008003800400000007800A3
:103D40003000480018006000580020007800000093
:103D50003800400048003000700008002000580083
:103D60003800400040003800700008002800500073
:103D70006000180000007800600018000800700063
:103D80007000080030004800600018001000680053
:103D90006000180018006000600018002000580043
:103DA0006000180028005000600018003000480033
:103DB0006000180038004000000078000000780023
:103DC0000000780008007000000078001000680013
:103DD0000000780018006000000078002000580003
:103DE00000007800280050000000780030004800F3
:103DF00000007800380040000000780040003800E3
:103E000000007800480030000000780050002800D2
:103E100000007800580020000000780060001800C2
:103E200000007800680010000000780070000800B2
:103E300000007800780000000800700000007800A2
:103E40000800700008007000080070001000680092
:103E50000800700018006000080070002000580082
:103E60000800700028005000080070003000480072
:103E70000800700038004000080070004000380062
:103E80000800700048003000080070005000280052
:103E90000800700058002000080070006000180042
:103EA0000800700068001000080070007000080032
:103EB0000800700078000000100068000000780022
:103EC0001000680008007000100068001000680012
:103ED0001000680018006000100068002000580002
:103EE00010006800280050001000680030004800F2
:103EF00010006800380040001000680040003800E2
:103F000010006800480030001000680050002800D1
:103F100010006800580020001000680060001800C1
:103F200010006800680010001000680070000800B1
:103F300010006800780000001800600000007800A1
:103F40001800600008007000180060001000680091
:103F50001800600018006000180060002000580081
:103F60001800600028005000180060003000480071
:103F70001800600038004000180060004000380061
:103F80001800600048003000180060005000280051
:103F90001800600058002000180060006000180041
:103FA0001800600068001000180060007000080031
:103FB0001800600078000000200058000000780021
:103FC0002000580008007000200058001000680011
:103FD0002000580018006000200058002000580001
:103FE00020005800280050002000580030004800F1
:103FF00020005800380040002000580040003800E1
:1040000020005800480030002000580050002800D0
:1040100020005800580020002000580060001800C0
:1040200020005800680010002000580070000800B0
:1040300020005800780000002800500000007800A0
:104040002800500008007000280050001000680090
:104050002800500018006000280050002000580080
:104060002800500028005000280050003000480070
:104070002800500038004000280050004000380060
:104080002800500048003000280050005000280050
:104090002800500058002000280050006000180040
:1040A0002800500068001000280050007000080030
:1040B0002800500078000000300048000000780020
:1040C0003000480008007000300048001000680010
:1040D0003000480018006000300048002000580000
:1040E00030004800280050003000480030004800F0
:1040F00030004800380040003000480040003800E0
:1041000030004800480030003000480050002800CF
:1041100030004800580020003000480060001800BF
:1041200030004800680010003000480070000800AF
:10413000300048007800000038004000000078009F
:10414000380040000800700038004000100068008F
:10415000380040001800600038004000200058007F
:10416000380040002800500038004000300048006F
:10417000380040003800400038004000400038005F
:10418000380040004800300038004000500028004F
:10419000380040005800200038004000600018003F
:1041A000380040006800100038004000700008002F
:1041B000380040007800000040003800000078001F
:1041C000400038000800700040003800100068000F
:1041D00040003800180060004000380020005800FF
:1041E00040003800280050004000380030004800EF
:1041F00040003800380040004000380040003800DF
:1042000040003800480030004000380050002800CE
:1042100040003800580020004000380060001800BE
:1042200040003800680010004000380070000800AE
:10423000400038007800000048003000000078009E
:10424000480030000800700048003000100068008E
:10425000480030001800600048003000200058007E
:10426000480030002800500048003000300048006E
:10427000480030003800400048003000400038005E
:10428000480030004800300048003000500028004E
:10429000480030005800200048003000600018003E
:1042A000480030006800100048003000700008002E
:1042B000480030007800000050002800000078001E
:1042C000500028000800700050002800100068000E
:1042D00050002800180060005000280020005800FE
:1042E00050002800280050005000280030004800EE
:1042F00050002800380040005000280040003800DE
:1043000050002800480030005000280050002800CD
:1043100050002800580020005000280060001800BD
:1043200050002800680010005000280070000800AD
:10433000500028007800000058002000000078009D
:10434000580020000800700058002000100068008D
:10435000580020001800600058002000200058007D
:10436000580020002800500058002000300048006D
:10437000580020003800400058002000400038005D
:10438000580020004800300058002000500028004D
:10439000580020005800200058002000600018003D
:1043A000580020006800100058002000700008002D
:1043B000580020007800000060001800000078001D
:1043C000600018000800700060001800100068000D
:1043D00060001800180060006000180020005800FD
:1043E00060001800280050006000180030004800ED
:1043F00060001800380040006000180040003800DD
:1044000060001800480030006000180050002800CC
:1044100060001800580020006000180060001800BC
:1044200060001800680010006000180070000800AC
:10443000600018007800000068001000000078009C
:10444000680010000800700068001000100068008C
:10445000680010001800600068001000200058007C
:10446000680010002800500068001000300048006C
:10447000680010003800400068001000400038005C
:10448000680010004800300068001000500028004C
:10449000680010005800200068001000600018003C
:1044A000680010006800100068001000700008002C
:1044B000680010007800000070000800000078001C
:1044C000700008000800700070000800100068000C
:1044D00070000800180060007000080020005800FC
:1044E00070000800280050007000080030004800EC
:1044F00070000800380040007000080040003800DC
:1045000070000800480030007000080050002800CB
:1045100070000800580020007000080060001800BB
:1045200070000800680010007000080070000800AB
:10453000700008007800000078000000000078009B
:10454000780000000800700078000000100068008B
:10455000780000001800600078000000200058007B
:10456000780000002800500078000000300048006B
:10457000780000003800400078000000400038005B
:10458000780000004800300078000000500028004B
:10459000780000005800200078000000600018003B
:1045A000780000006800100078000000700008002B
:1045B000780000007800000000000000000000000B
:1045C0002D0800080000000000000000A9070008F6
:1045D0000000000000000000E10A0008D09DD0B0FB
:1045E000D180D0B0D0B1D0BED182D0BAD0B000D0BE
:1045F00098D0BDD184D0BED180D0BCD0B0D186D02F
:10460000B8D18F00D09DD0BED0B2D0BED0A2D0B590
:10461000D1852DD0ADD09AD09E00D09DD0B0D1887C
:10462000D0B020D180D0B5D0BAD0BBD0B0D0BCD023
:10463000B000232D302B2000686C4C006566674568
:10464000464700303132333435363738394142430A
:1046500044454600303132333435363738396162BB
:084660006364656600000000C0
:08466800E90000084D280008DC
:04467000C10000087D
:104674000400002000000000000000000000000012
:104684000000000000000000000000000000000026
:104694000000000000000000000000000000000016
:1046A4000000000000000000000000000000000006
:1046B40000000000000000000000000000000000F6
:1046C40000000000000000000000000000000000E6
:0446D40000000000E2
:04000005080029A125
:00000001FF
